:100000000C9441020C9488020C9488020C9488028F
:100010000C9488020C9488020C9488020C94880238
:100020000C9488020C9488020C943B1E0C940F1FB5
:100030000C9496180C9488020C9488020C948802F4
:100040000C9488020C9488020C9488020C94880208
:100050000C9488020C94E1180C9488020C94880289
:100060000C9488020C9488020C9488020C948802E8
:100070000C9488020C9488020C9488020C948802D8
:100080000C9488020C9488020C9488020C948802C8
:100090000C9488020C9488020C9488020C948802B8
:1000A0000C9488020C9488020C94880214001A00A4
:1000B000080015001700000000001C0018000C00CC
:1000C0001200130004001600070009000A000000D7
:1000D00000000B000D000E000F0033001D001B0080
:1000E0000600190005004C00AE001100100036009B
:1000F0003700380029002B00E300E1002A00E0006F
:10010000E2002C0001510251340028001E0234028A
:100110002F0230026402000000002D0024002500A0
:1001200026002502320020022602270235000000A8
:10013000000037002100220023002E0222022302A9
:100140002F00300032020100010024021E001F00B7
:100150002000640076003900360237024C000100AE
:1001600001002D020100010027002E0049004A0075
:1001700052004D004B0000000000A900400041006B
:10018000420043004C00500051004F004E00000060
:100190000000AA003D003E003F00440001000100B5
:1001A00001000100010001000100A8003A003B002D
:1001B0003C004500010001000100010001000100B8
:1001C00001000100005C01000100010044454255AE
:1001D000473A2064697361626C65642E0A00444585
:1001E0004255473A20656E61626C65642E0A000ACA
:1001F000002530313662003A200025303258000A9E
:10020000722F63203031323334353637383941423A
:10021000434445460A00556E69636F646520696E04
:10022000707574206D6F6465206379636C652074EC
:100230006F3A2025750A00556E69636F6465206901
:100240006E707574206D6F64652073657420746FB3
:100250003A2025750A00556E69636F646520696EE2
:10026000707574206D6F646520696E697420746F99
:100270003A2025750A000A002530325820006B65A7
:1002800079626F6172645F7265706F72743A200098
:100290000A0025303258006B6579626F6172645FC5
:1002A0007365745F6C65643A200064656C5F6B65B0
:1002B000795F6269743A2063616E27742064656CAB
:1002C0003A20253032580A006164645F6B65795FBB
:1002D0006269743A2063616E2774206164643A2015
:1002E000253032580A005B735D004B6579626F619F
:1002F00072642073746172742E0A005B575D005B38
:10030000535D005B525D005B445D005B435D000438
:1003100003300000001A0349006E0066006C006F95
:1003200000720065007300630065006E00740000D9
:10033000000E034100720063006800690065000060
:10034000000403090409025B00030100A0FA090488
:1003500000000103010100092111010001224000F8
:100360000705810308000A090401000103000000D9
:10037000092111010001226D000705820320000AF6
:1003800009040200020300000009211101000122FA
:100390002200070583032000010705030320000155
:1003A0001201100100000008EDFE60600100010272
:1003B00003010631FF0974A1010975150026FF002C
:1003C0009520750881020976150026FF0095207595
:1003D000089102C005010980A101850319012AB70E
:1003E00000150126B700950175108100C0050C09A4
:1003F00001A101850419012AA002150126A0029578
:100400000175108100C005010906A10185050507D8
:1004100019E029E7150025019508750181020507F6
:10042000190029EF1500250195F0750181020508D5
:100430001901290595057501910295017503910131
:10044000C005010906A101050719E029E7150025E6
:10045000019508750181029501750881010507194B
:100460000029FF150026FF00950675088100050884
:1004700019012905950575019102950175039101F1
:10048000C00011241FBECFEFDAE0DEBFCDBF04B63F
:1004900003FE27C080917A0290917B02A0917C029A
:1004A000B0917D028730904BA740B04BD1F41092B1
:1004B0007A0210927B0210927C0210927D0214BE8E
:1004C00084B7877F84BF0FB6F894A89580916000A9
:1004D000886180936000109260000FBEE0E0F8E356
:1004E000099511E0A0E0B1E0ECE7F2E402C005906C
:1004F0000D92AE38B107D9F722E0AEE8B1E001C005
:100500001D92AA37B207E1F70E94701B0C941421C8
:100510000C940000FF93EF93E0918E01F0918F0116
:10052000309709F00995EF91FF910895FC018591AD
:10053000803011F0EFDFFBCF0895FF27E0E230E2DB
:1005400047FF0CC0419597FF09C0EDE2609570959B
:1005500080959095611D711D811D911D27FF02C021
:10056000219530E350E2AA27660F771F881F991F55
:10057000AA1FA41710F0A41B63955A95A9F7AA30D7
:1005800008F0A95FA05DAF93F39561157105810532
:10059000910541F7ED3211F4EF93F395F21718F44A
:1005A0003F93F395FBCF8F91B5DFFA95E1F708956F
:1005B000E991F9918591803021F0853219F0AADF17
:1005C000F9CF089520E0E89455915532C1F35033A6
:1005D00011F4689455915A3348F4505390F3220F14
:1005E000022E220F220F200D250FF4CF0EF421959D
:1005F00089919991533619F3533729F1533559F1AC
:10060000BC0188279927E8945C3621F48991999157
:1006100068945591543639F446EF7EF077FF0DC05B
:100620008FEF9FEF0AC055374AE039F0583540E167
:1006300021F0523642E009F00895FF93EF937DDFF9
:10064000EF91FF91B7CFFF93EF93FC018191803041
:10065000B9F360DFFBCFFF93EF9368DFF1CFDF9358
:10066000CF93CDB7DEB72596A3DFCF91DF91089565
:1006700081E00895CF93DF939C013A9521153F4186
:1006800068F5EC01CC27D170DC01AA27B270AC016F
:10069000442754709C012227387094FF11C080E1D8
:1006A000CD2B09F480E0AB2B09F08062452B09F0DB
:1006B0008064232B09F08068FB01DF91CF910994BE
:1006C00081E0CD2B09F480E0AB2B09F08260452B53
:1006D00009F08460232B81F38860EECFDF91CF9106
:1006E0000895CF93DF93EC01805E9109089720F085
:1006F0006BE370E1209711F460EE7DE0CE010E9483
:100700003A038C2FDF91CF910C94F40CCF93DF93AD
:10071000EC010E947E0DCE01805E9109089720F0C9
:1007200062E470E1209711F467EE7DE0CE01DF9185
:10073000CF910C943A03CF93DF93EC010E947103A5
:10074000CE01DF91CF910C94860381E008950C9443
:10075000380308950C94A9031F93CF93DF9300D01F
:1007600000D00F92CDB7DEB749835A836B833091A7
:10077000A70189819A8131111DC06623B9F0222316
:10078000A9F00E944815182F682F89819A810E942C
:10079000F41469817A81812F0F900F900F900F9040
:1007A0000F90DF91CF911F910C948A040E94201525
:1007B000182FEFCF0E94481569817A81EDCFFC0197
:1007C000262F408151816281738184810C94AC0316
:1007D000CF93DF93EC0160E00E94DF03BE01DF9165
:1007E000CF910C94AA030E942B190E94BF1681116D
:1007F00002C00E945C170E941D080C948D060C9488
:100800009006282F2F7041F0822F90E02A3010F4AC
:100810004D9608950697089587E290E0089508950B
:100820000C940F0481E008950C941204CF93C82F08
:100830000E9410048C2FCF910C94140408950E94F0
:100840005B100E941E042FEF84E39CE02150804047
:100850009040E1F700C000000C9405190F931F931E
:10086000CF93DF93EC0161E00E94DF038C01BE01B6
:100870000E94A703882341F1BE01C8010E94E0083D
:10088000882311F1BE01C8010E949C098823E1F070
:10089000BE01C8010E94EE098823B1F0BE01C80163
:1008A0000E94110B882381F08A81882341F1013055
:1008B0008CE5180779F00E3D8CE51807E9F0011575
:1008C0001C45E9F40E941F0480E0DF91CF911F9145
:1008D0000F91089590912B02892F8E7F90FF816058
:1008E00080932B0280FF05C08EED91E00E9496025E
:1008F000EBCF8CEC91E0FACF0E945C17E5CFCE01F4
:10090000DF91CF911F910F910C94A50390E080E0AF
:1009100008950895972F70E02CE0929F600D711D4F
:100920001124FB0190E3899FE00DF11D1124EE0FCE
:10093000FF1FE455FF4F859194910895FC01EE0F40
:10094000FF1FE151FE4F859194910895CF93DF935E
:100950000E948A040E94B205EC01811520E59207ED
:1009600008F041C0811530E4930708F0B4C0803E20
:10097000910518F5803C910508F09DC0883A9105D5
:1009800070F4853A910508F08EC081309105F9F038
:100990000097E9F00497D8F4D0E0C0E018C08F3B8E
:1009A0009105D0F7C85AD0E0CC0FDD1FC35FDE4FF2
:1009B0000990D881C02DD4640AC08115904258F4A2
:1009C000C11581E0D80718F4C83ED10528F7CE013B
:1009D000DF91CF910895C11590E3D90708F071C058
:1009E000CE019F706AC0811525E5920758F58115E3
:1009F00034E5930708F09EC0811542E5940750F452
:100A0000C11581E5D80708F469C0DC2FCC27C16F78
:100A1000D06ADDCF982F969596959E012370332747
:100A2000C115D34508F077C0C1E0D0E002C0CC0FBB
:100A3000DD1F2A95E2F720E2929FC0011124C82B06
:100A4000D92B67C0C11589E5D807A8F4C11598E569
:100A5000D90708F074C0C11526E5D20708F09CCF6D
:100A60008C2F0E944906C82FD0E0DC2FCC27CC2742
:100A7000DF71D062ACCFC1153AE5D30708F464C08A
:100A8000CE0190568115904208F086CF8D2F8F7140
:100A90000E94490690E0982F882788279F719C0123
:100AA0002C2BE901E6CFC55AD0E0C55CDE4FC881EA
:100AB000D0E0D0648CCF805C91090E949E04EC0150
:100AC00086CFCE019927D3FF03C0EC01D86C7FCF2E
:100AD000EC01D06C7CCFDF70D06A79CFCE01E4E03E
:100AE00096958795EA95E1F783702C2F26952695A4
:100AF000237090E2299F90011124382B8C2F837052
:100B0000C1E0D0E002C0CC0FDD1F8A95E2F7C22B16
:100B1000D32BDC685CCFC1E0D0E002C0CC0FDD1F7E
:100B20002A95E2F730E2939FC0011124C82BD92BFC
:100B3000DA684DCFD82FCC27C46FD06A48CFDC2FCE
:100B4000CC27C06FD06A43CF8C2F8F700E9449068C
:100B500034E0D695C7953A95E1F7CF709C2FEC011C
:100B6000D06935CF82389105B1F1B0F48133910568
:100B700009F475C048F48932910509F469C08A32D4
:100B8000910509F473C008958533910509F459C09E
:100B90008933910501F10895833E9105A9F138F457
:100BA000803E9105F9F0823E910549F10895863E17
:100BB0009105A9F1873E9105C9F1843E910519F58A
:100BC00020916C0221FF1FC080916B0284FD14C034
:100BD00087EE90E0089520916B022370A1F080EEE3
:100BE00090E0089520916B0220FD47C030916C0287
:100BF00030FF09C024FF44C090E080E004C0209191
:100C00006B0222FDF7CF089520916B0222FD3BC0BD
:100C100030916C0230FDE3CF24FFF5CFEDCF209172
:100C20006B0223FFF0CF24FDE7CFD2CF20916B02E0
:100C300023FD2CC030916C0231FFEECF84EE90E0AA
:100C4000089520916B0225FFDECF89E290E00895A0
:100C500020916B0225FFD7CF85E390E00895209186
:100C60006B0226FFD0CF8AE290E0089520916B02BC
:100C700026FFC9CF81E390E0089589E390E00895CD
:100C800083EE90E0089582EE90E0089586EE90E085
:100C9000089590916B0292FF06C0282F287128308A
:100CA000F9F4877F846093FF06C0282F28712831CC
:100CB000F1F4877E846120916C0220FF06C0382FFA
:100CC00038713830D9F4877F816021FF06C0282F22
:100CD00028712831D1F4877E816194FD877E089543
:100CE000282F24712430F9F68B7F8860DCCF282FE1
:100CF0002471243101F78B7E8861DDCF382F31716B
:100D0000313019F78E7F8860E0CF282F2171213193
:100D100021F78E7E8861E1CF08950C948C060895AA
:100D20000C948F06E82FF0E0EE0FFF1FE65AFD4F00
:100D3000808191810895CF92DF92EF92FF920F937D
:100D40001F93CF93DF938FEF91E00E9496028AE585
:100D5000E82E82E0F82ED0E0C0E09AEFC92E91E0B4
:100D6000D92E01EF11E0DF93CF93DF92CF920E9453
:100D70002F0387EF91E00E949602F70181919191F4
:100D80007F010E94AC169F938F931F930F930E9435
:100D90002F038FEE91E00E94960221968DB79EB7A9
:100DA00008960FB6F8949EBF0FBE8DBFC430D10514
:100DB000D1F6DF91CF911F910F91FF90EF90DF90CF
:100DC000CF90089580EA8A95F1F70895CF93DF9345
:100DD000AAE4B1E04EE451E0C1E0D0E08D91E82F0B
:100DE000E295EF70F0E061A18F709E0101C0220FCB
:100DF0008A95EAF7922F9095962391A382A1822B50
:100E000082A34A175B0751F7AEE3B1E04AE451E031
:100E1000C1E0D0E08D91E82FE295EF70F0E061A1A4
:100E20008F709E0101C0220F8A95EAF7922F90954C
:100E3000962391A382A1822B82A34A175B0751F7C5
:100E4000109253021092520210925B0210925A02B8
:100E5000109255021092540210925D0210925C02A0
:100E6000109257021092560210925F0210925E0288
:100E70001092590210925802109261021092600270
:100E800084E00E94CE07DF91CF910C94F3038F9200
:100E90009F92AF92BF92CF92DF92EF92FF920F9309
:100EA0001F93CF93DF938AE4E82E81E0F82E02E5CA
:100EB00012E0912CAA24A394B12CF70181917F0117
:100EC000C82FC295CF70D0E099A18F70650101C085
:100ED000CC0C8A95EAF7892F8C2989A38AA18C2CBE
:100EE000809488218AA30E94E206EEE3F1E050E0BC
:100EF00040E030E020E06191A62FA295AF70B0E015
:100F000090968C9190E06F7002C0959587956A9548
:100F1000E2F780FD3EC0C501042E02C0880F991F74
:100F20000A94E2F7282B392B4F5F5F4F4C30510565
:100F300011F789A1882289A28AA1C82ACAA2F80128
:100F4000808191812817390739F13183208381E02D
:100F5000982A0E5F1F4FFEE4EF16F1E0FF0609F03E
:100F6000ACCF292D44E06AE572E082E592E00E9470
:100F7000CF070E94FF03892DDF91CF911F910F9121
:100F8000FF90EF90DF90CF90BF90AF909F908F90A9
:100F9000089590E080E0C6CF80E0DACF0895FF9218
:100FA0000F931F93CF93DF93F82E092F162FD72F70
:100FB000C42F222349F081E0809392010E94C61839
:100FC0009093910180939001809192018823A1F0E8
:100FD00080919001909191010E94D218069760F043
:100FE000EF2DF02FA12FBD2F90E080E0D0E08C17E7
:100FF0009D0744F010929201DF91CF911F910F91C4
:10100000FF900895219131912D933D930196EFCF5B
:10101000CF93DF93EC0197FF0CC0FB018281882303
:1010200041F00E947F08CE019F770E94C3080E9472
:10103000AB0881E0DF91CF9108958CE090E00E94B1
:10104000D220482F50E070E060E04093620250935D
:10105000630260936402709365021092930184307E
:1010600099F480912B0280FF0EC0809162021F9242
:101070008F9386E592E09F938F930E942F030F90AA
:101080000F900F900F90089584E080936202E9CF53
:10109000609162028CE090E00C94E0208093620208
:1010A0000E94480880912B0280FF0EC0809162024E
:1010B0001F928F9387E392E09F938F930E942F0359
:1010C0000F900F900F900F9008951092930184E06D
:1010D000809362020E94480880912B0280FF0EC01C
:1010E000809162021F928F9386E192E09F938F938B
:1010F0000E942F030F900F900F900F9008950E9461
:10110000DD15809366020E94F015809162028130A5
:1011100089F0882359F0823091F08430B9F08FE360
:101120009CE90197F1F700C00000089582EE0E944B
:10113000F40CF5CF88E193E00E949B03F0CF82EEA0
:101140000E94F40C87E50E94CD0DE9CF86EE0E9447
:10115000CD0D88E1F8CF80916202813071F0882353
:1011600041F0823031F0843061F0809166020C945D
:10117000ED1582EE0E947E0DF8CF8CE20E94CD0D1F
:10118000F4CF88E2FBCF0F931F93CF93DF938C01B3
:10119000CCE0D0E0C8010C2E02C0969587950A9449
:1011A000E2F78F700E9401040E949B032497CC3FBA
:1011B0008FEFD80779F7DF91CF911F910F910895A5
:1011C0000F931F93CF93DF93EC018B01FB0182817F
:1011D000882361F00E94DD158272C03EFCE5DF07C6
:1011E000D1F060F4CF3DECE5DE0789F0B801CE0127
:1011F000DF91CF911F910F910C940808C63EFCE53A
:10120000DF07A0F78C2F815E0E944E08EFCF81117F
:1012100004C081E003C08111FCCF8FEF0E946508FC
:10122000E5CFAF92BF92CF92DF92EF92FF920F93F2
:101230001F93CF93DF937C015B01C42FD22FFC015E
:1012400082818823F9F0409396010E94C6189093FA
:1012500095018093940180E28C0F883008F061C082
:10126000C77081E001C0880FCA95EAF7DF91CF917E
:101270001F910F91FF90EF90DF90CF90BF90AF90B4
:101280000C94E00D10919601141340C080919401CC
:10129000909195010E94D2186C01B701C5010E947E
:1012A000D112C816D90690F5C0E2CD0F1D17B9F0BE
:1012B00080E2810F883040F4177081E001C0880F10
:1012C0001A95EAF70E94E70DC83048F481E09D2F97
:1012D000977001C0880F9A95EAF70E94E00D802F61
:1012E0000E94CD0DC830E8F4D77081E001C0880FAE
:1012F000DA95EAF7DF91CF911F910F91FF90EF9070
:10130000DF90CF90BF90AF900C94E70D80E28C0FF0
:10131000883038F4C77081E001C0880FCA95EAF7B9
:10132000E9CFDF91CF911F910F91FF90EF90DF9068
:10133000CF90BF90AF9008950F939C01CB01233FB6
:101340004CE5340759F1A8F4283DFCE53F0701F1CD
:10135000293D4CE53407D1F1273D3C4591F406E2A7
:1013600021EE41EE67ED7CE50E94110980E00F91CE
:101370000895253FFCE53F07E9F0B0F0263F3C45E6
:10138000F9F0FC018281882339F110929601EFCFA8
:1013900007E225EE45EE68ED7CE5E6CF06E221EEBC
:1013A00040EE63EF7CE5E0CF07E225EE44EE64EF2C
:1013B0007CE5DACF06E221EE42EE65EF7CE5D4CFA4
:1013C00007E225EE46EE66EF7CE5CECF08E221E0AF
:1013D00045EE69ED7CE5C8CF81E0C9CFCF93DF93BF
:1013E000EC01FB018281882309F419C1C230FCE5BC
:1013F000DF07C0F1C6319CE5D90730F09E012A5FB6
:101400003C452930310570F50E94D21690936C024C
:1014100080936B02C031ECE5DE0709F4CFC008F021
:101420005BC0C8308CE5D80709F4B6C088F5C43075
:10143000ECE5DE0709F4A8C0C0F4C2308CE5D8079B
:1014400009F49CC080916B028260C330DC4509F4D2
:1014500098C080916B0290916C020E94E0160E94ED
:101460005B1080E0DF91CF91089580916B028061E5
:10147000C630ECE5DE0709F484C080916B02886019
:10148000C730DC4508F47DC080916B02806279C072
:10149000CC308CE5D80709F489C070F480916B02D8
:1014A0008C60CA30ECE5DE0709F46BC008F478C044
:1014B00080916B028E7F65C0CE308CE5D80709F431
:1014C00079C080916B028B7FCF30DC4508F459C026
:1014D00080916B028F7E55C0CB3FECE5DE0709F4AF
:1014E00057C030F5C3318CE5D80709F46FC078F4E4
:1014F000C131ECE5DE0709F465C0C231DC4509F015
:10150000A8CF0E945B1080916B028F773AC0C531E3
:101510008CE5D80709F462C008F476C080916C02AB
:101520008160CA3FDC4509F094CF80936C0291CF73
:10153000CF3FFCE5DF0709F44DC088F480916C02D1
:101540008D7FCD3F9CE5D90781F380916C028E7F22
:10155000CE3FDC4550F380916C028360E6CFC13012
:10156000FDE5DF0709F459C008F444C080E0C2304B
:10157000DD4509F06ECF0E945E176BCF80916B0244
:10158000816080936B0265CF80916B028460F9CF9C
:1015900080916C028260C9CF80916B028064F1CF30
:1015A0000E945B1080916B028068EBCF80916B0290
:1015B0008D7FE7CF80916B02877FE3CF80916B02B5
:1015C0008F7DDFCF80916B028F7BDBCF80916B02B1
:1015D000837FD7CF80916C028C7FA7CF80916B02E5
:1015E00082FB992790F921E0922790FB82F990FBEA
:1015F00083F9C7CF80916C02982F909591708E7F60
:10160000892B90FB81F991CF0E945B1090916B0226
:10161000892F97FB87F98058B4CF81E0ACCF81E068
:1016200021CFCF93DF93EB0186319C4511F50E94CA
:10163000DD159A81992399F08A7A91E009F490E076
:1016400090939701811109C089E20E94B8150E9408
:101650002C1680E0DF91CF91089585E3F6CF80913D
:101660009701811104C089E20E94BF15F0CF85E384
:10167000FBCF81E0EFCF90939D0180939C01089573
:10168000E0919C01F0919D01309721F00190F08153
:10169000E02D099480E00895EF92FF920F931F933D
:1016A000CF93DF93EC01E0919C01F0919D01309785
:1016B00009F446C080910C01882341F080916B02AF
:1016C00087FF04C08881898385E088830280F38155
:1016D000E02DCE01099580912B0282FF31C080FF61
:1016E00004C08EE792E00E94960210E000E088E7D6
:1016F000E82E82E0F82E80912B0280FF0EC0FE01C2
:10170000E00FF11F80811F928F93FF92EF920E9452
:101710002F030F900F900F900F900F5F1F4F083007
:10172000110549F780912B0280FF0AC086E792E0FD
:10173000DF91CF911F910F91FF90EF900C94960243
:10174000DF91CF911F910F91FF90EF90089520911D
:101750009A0130919B012817390771F090939B01F2
:1017600080939A01E0919C01F0919D01309721F0C6
:101770000680F781E02D0994089520919801309119
:1017800099012817390771F0909399018093980176
:10179000E0919C01F0919D01309721F00084F1854A
:1017A000E02D0994089585B7806885BF85B7806866
:1017B00085BF0895089508950C94DA0B08950C944C
:1017C000DE0B0E94D30B0E94DB0B0C94DC0B81E040
:1017D00008950C94E70B0E94BD180E94E6060E9433
:1017E0003F190C94DF0BCF93C82F80912B0282FFFF
:1017F0001EC080FF1CC087E992E00E949602809183
:101800002B0280FF14C01F92CF9382E992E09F9336
:101810008F930E942F0380912B020F900F900F90B7
:101820000F9080FF04C080E992E00E9496028C2F06
:10183000CF910C9416049F92AF92BF92CF92DF92F9
:10184000EF92FF920F931F93CF93DF93CDB7DEB745
:101850002A970FB6F894DEBF0FBECDBF0E94470790
:101860000E94E90B882309F46DC05FE9A52E51E0C1
:10187000B52E10E000E0902E802F0E9492066C01A1
:10188000F501E190F1905F01E816F90609F454C002
:1018900080912B0281FD0E949B0697012C253D25FE
:1018A00080E0EE24E394F12CA9014E215F21452B29
:1018B000E9F18E839F82CE20DF2081E0CD2809F4DC
:1018C00080E088870E94C6188160782F9A87898770
:1018D0004E815F8168858A850E94C50C000F111FAB
:1018E000F801E156FE4F80819181E826F926F182C8
:1018F000E0820E94400B90919E018917A1F10E9405
:10190000400B80939E012A960FB6F894DEBF0FBE5F
:10191000CDBFDF91CF911F910F91FF90EF90DF909E
:10192000CF90BF90AF909F900C94F30B8F5FEE0C15
:10193000FF1C8C3009F0B8CF0F5F1F4F043011052A
:1019400009F099CF8FEF89838A831B820E94C61882
:101950008160782F9D838C8349815A816B818D8131
:101960000E94C50CC6CF2A960FB6F894DEBF0FBEF4
:10197000CDBFDF91CF911F910F91FF90EF90DF903E
:10198000CF90BF90AF909F900895CF93DF93CDB746
:10199000DEB72B970FB6F894DEBF0FBECDBF4F83D7
:1019A000588769877A878B871E821D8285E0FE01B2
:1019B0003796DE01119601900D928A95E1F74981E3
:1019C0005A816B817C818D819E812B960FB6F89414
:1019D000DEBF0FBECDBFDF91CF910C94D412FC01BE
:1019E000808191810C948A15CF93C82F882309F4A4
:1019F00083C08238C1F40E94400B81FD7DC089E321
:101A00000E94B8150E942C162FEF81EE94E0215011
:101A100080409040E1F700C0000089E30E94BF15BC
:101A2000CF910C942C168338A1F40E94400B80FDBA
:101A300063C083E50E94B8150E942C162FEF81EE3B
:101A400094E0215080409040E1F700C0000083E521
:101A5000E5CF8438A1F40E94400B82FD4DC087E49D
:101A60000E94B8150E942C162FEF81EE94E02150B1
:101A700080409040E1F700C0000087E4CFCF8CEFBA
:101A80008C0F813A90F46C2F8091000190910101AC
:101A90000E947717882329F08C2F0E94BF150E947F
:101AA0002C168C2F0E94B815BBCF80E28C0F88308B
:101AB00048F4C77081E001C0880FCA95EAF70E9418
:101AC000E015AECFEBE5EC0FE33040F4F0E0E45886
:101AD000FE4F808190E0CF910C94A70BC85AC7317C
:101AE00058F4EC2FF0E0EE0FFF1FE25BFE4F808119
:101AF0009181CF910C94BD0BCF910895882309F467
:101B00004BC0823871F40E94400B81FF45C089E3CD
:101B10000E94B8150E942C1689E30E94BF150C94F0
:101B20002C16833859F40E94400B80FF35C083E5A2
:101B30000E94B8150E942C1683E5EFCF843859F423
:101B40000E94400B82FF28C087E40E94B8150E94C3
:101B50002C1687E4E2CF9CEF980F913AF0F290E2D6
:101B6000980F983050F4877091E001C0990F8A95D2
:101B7000EAF7892F0E94E615D2CF9BE5980F9330A4
:101B800020F490E080E00C94A70B885A873120F471
:101B900090E080E00C94BD0B0895CF93C82F0E9475
:101BA000F40CC93349F42FEF87EE93E021508040C5
:101BB0009040E1F700C000008C2FCF910C947E0D77
:101BC000882321F00E94E0150C942C160895882398
:101BD00021F00E94E6150C942C160895BF92CF9226
:101BE000DF92EF92FF920F931F93CF93DF936C01DD
:101BF000D62FC72FFC01058102950F70128111119C
:101C00000E9400160E94D615E82E882391F0112319
:101C1000D1F08C2F807F803421F080E28D0F8830CE
:101C200090F082E00E9477160E94D61591E0E82E8F
:101C3000E926BC2EB2949FE0B922EB2DF0E0EA5EDB
:101C4000FE4D0C94CC20E12CF4CF0C2F0F70C07FF4
:101C500011F00295007F1123A9F0002359F080E2D2
:101C60008D0F883010F0D11109C0802F0E94E0152F
:101C70000E942C168D2F0E94F40C14C0802F0E94FD
:101C8000F315F6CF8D2F0E947E0D002359F080E2D0
:101C90008D0F883010F0D1112CC0802F0E94E615D6
:101CA0000E942C162B2D2850330B2430310520F4A4
:101CB0000E94400B0E941604EE2009F493C10E947A
:101CC000D21580FD8FC1F60112820E94CC150E94B0
:101CD0005814C6010E9413100E94CC15DF91CF91B9
:101CE0001F910F91FF90EF90DF90CF90BF900C94D9
:101CF0007914802F0E94F915D3CFFC2FFF70FF2E8F
:101D0000C07FC03219F0F29480EFF822DD2369F031
:101D1000D13049F1112391F1002351F1F601858170
:101D200080FFA8CF8F70858323C0112381F001111C
:101D300006C00E9413168F290E94E00DB3CF013018
:101D4000C1F70E9413168F290E941916ABCF0111FB
:101D500006C00E9422168F2D0E94E70DA3CF0130EE
:101D600009F4A0CFF6CF112329F0063008F09ACF5E
:101D70008F2DE2CF053008F095CFEDCF002359F33A
:101D8000D93349F4FFEF27EE33E0F15020403040E3
:101D9000E1F700C000008D2F0E947E0D83CF8C2FB5
:101DA00086958695837069F0813009F07BCF8D2F01
:101DB0009C2F9370111102C090E080E00E94BD0B37
:101DC00071CF8D2F9C2F9370111102C090E080E095
:101DD0000E94A70B67CF8C2F837009F041C01111AF
:101DE00061CF4D2F429546954770440F440F0D2FFC
:101DF0000F7010E030E020E0042E04C0000F111F2F
:101E0000221F331F0A94D2F760E070E0CB01D4FFA9
:101E10000FC06FE070E080E090E004C0660F771FB5
:101E2000881F991F4A95D2F7609570958095909577
:101E3000C695C695C370602B712B822B932BC23035
:101E400049F058F4C13019F00E940A142BCF0E94B7
:101E5000F81328CF0E941C1425CF0E94F61322CF1E
:101E60008695112311F08C2F8170882309F41ACFE5
:101E70004D2F429546954770440F440F0D2F0F701C
:101E800010E030E020E0042E04C0000F111F221FDC
:101E9000331F0A94D2F760E070E0CB01D4FF0FC08B
:101EA0006FE070E080E090E004C0660F771F881F4D
:101EB000991F4A95D2F76095709580959095C69533
:101EC000C695C370602B712B822B932BC23049F0C7
:101ED00058F4C13019F00E94CF14E4CE0E94BD1412
:101EE000E1CE0E94E114DECE0E943214DBCECF7030
:101EF000112329F08C2F0E9458148D2F1DCF8D2F68
:101F00000E94E70D8C2F0E947914CCCED23F89F12C
:101F100060F4D03FC9F0D13F29F1112309F442C048
:101F20000111A8CE8C2F8F7121C0D33F39F1D43F3E
:101F3000A1F7112369F1CF718C2F0E94581463E02F
:101F40008C2F0E946216AECE112341F0053008F0AE
:101F5000A9CE8C2F8F710E949C14A4CE063008F05D
:101F6000A1CEF7CF8C2F8F71112369F20E945814E4
:101F700099CE8C2F8F711123C9F3C5CF112329F06E
:101F80008C2F8F710E9443148DCE0E943E148ACEF6
:101F900081E00E947716023008F484CE82E00E942D
:101FA000771680CE002359F0D93309F0F4CE8FEFA5
:101FB00097EEE3E081509040E040E1F7EACE8C2FCD
:101FC0008F71A1CF4C2F4F706D2FC6010E948604D8
:101FD0000E946E1367CE4C2F4F706D2FC6010E946A
:101FE000890460CEDF91CF911F910F91FF90EF9008
:101FF000DF90CF90BF9008950F931F93CF93DF93FF
:10200000EC01688179818A810E9494158C010E947B
:10201000F3140E94F513B801CE01DF91CF911F9107
:102020000F910C94EE0DCF93DF93EC018B819C818B
:10203000892B29F08881998189238F3F59F4DF9179
:10204000CF910895CE010E94FC0FCE01DF91CF9178
:102050000C94E803CE010E942E048111F3CF0E945C
:10206000D615882361F38A81882349F382E0DF91C2
:10207000CF910C947716882321F00E94F3150C94CD
:102080002C160895882321F00E94F9150C942C1623
:1020900008950E9400160E9410160E942C1690E0CF
:1020A00080E00E94A70B90E080E00C94BD0B0E94A2
:1020B000C6150C9449100E94F0150C945710E92F86
:1020C000E295EF70E250EE3070F4F0E0EA5DFE4D24
:1020D0000C94CC20803F19F020F4883E20F481E05D
:1020E0000895843FE1F380E00895883EC0F3813F86
:1020F000D1F7F5CF93FB882780F908950E948A15C0
:102100000C945F10CF93DF9300D000D00F92CDB727
:10211000DEB70F900F900F900F900F90DF91CF913F
:102120000895CF93DF9300D000D000D0CDB7DEB7B5
:1021300026960FB6F894DEBF0FBECDBFDF91CF91CC
:1021400008951F93CF93DF93C091A80116E080916B
:10215000A9018C1304C0DF91CF911F910895D0E0A5
:102160001C9FF0011D9FF00D1124E655FE4F40818C
:10217000518162817381848195810E9491102196A1
:10218000C770E5CF4091DA015091DB016091DC012D
:102190007091DD018091DE019091DF010C9491102E
:1021A0001F93CF93DF938091DF01807FA9F480910B
:1021B000DC01882389F08091A801C091A901609178
:1021C000DA017091DB01A091DD01B091DE01D62F23
:1021D000D72316E0C81304C0DF91CF911F91089553
:1021E00090E0109711F0DF3F19F401968770F2CF5D
:1021F000189F9001199F300D1124F901E655FE4FEB
:1022000041814713F2CF40814613EFCF4281411104
:10221000ECCF438154814A1B5B0B483C510528F7A6
:102220008091DF018F7080618093DF01F901E155BA
:10223000FE4F80818F70806180838AED91E00E94E3
:102240001310DF91CF911F910C94A110AF92BF9208
:10225000CF92DF92EF92FF920F931F93CF93DF9372
:10226000CDB7DEB761970FB6F894DEBF0FBECDBF16
:102270008C0185E0F801DE011D9601900D928A9592
:10228000E1F7F80140815181E2808AEDC82E81E0BA
:10229000D82E6091DD017091DE016115710509F4A0
:1022A00061C19091DA012091DB01892F82238F3F58
:1022B00009F458C1A380B480F090DC01F501E61B5D
:1022C000F70BFF2009F4FCC08091DF01382F307F2D
:1022D000E83CF10508F0B2C0311179C0FE2C25139D
:1022E00023C0941321C0E1101FC08F7080618093C0
:1022F000DF010E94C210C6010E9413108091DF010D
:10230000F80185838F2D61960FB6F894DEBF0FBE5E
:10231000CDBFDF91CF911F910F91FF90EF90DF9094
:10232000CF90BF90AF900895AB2829F0842F8523DC
:102330008F3F09F033C180E0F82FF170DF2E80FF6E
:102340003CC08091A8012091A90136E0821315C0FC
:102350004D875E878D859E850E948A15292F22953F
:102360002F702230F0F0243018F59F70F1F0F80152
:102370009581907FD1F4D12C1EC090E0389FF00160
:10238000399FF00D1124E655FE4F6181651306C09B
:102390006081641303C062816E110FC00196877063
:1023A000D5CF9F7011F0882331F3805E883018F309
:1023B000C8010E941310FD2CA5CFEE2009F4A2CF76
:1023C0008091DF0181608093DF01F12C9BCF251389
:1023D00006C0941304C0F801EE2009F48DC04D87A7
:1023E0005E878D859E850E947E10882319F1EE20E0
:1023F00009F18091DF01803270F02091DA01309193
:10240000DB0138872F831986BB86AA868C87CE018D
:1024100007960E94131086E0F801AAEDB1E0019042
:102420000D928A95E1F70E94D0100E94C210FF24FD
:10243000F39468CFC8010E941310F9CF311113C073
:102440007A2DB98AA88A6E2D89890E9482108AED18
:1024500091E00E94131086E0F60111928A95E9F747
:102460000E94C210B2CF25130FC094130DC0E1100B
:102470000BC0F8018583C8010E94131086E0F601A5
:1024800011928A95E9F73ECF4D875E878D859E85AF
:102490000E947E10882371F2EE2061F28091DF01AC
:1024A000803208F4B8CF2091DA013091DB013A8311
:1024B00029831B82BD82AC828E83CE010196A9CF77
:1024C000E83CF10508F041C0FE2CEE2009F4B2CF43
:1024D00025132AC0941328C08091DF0180FD1BC002
:1024E000982F907FC1F0F8018583903F31F0982FAD
:1024F000907F905F8F70892B8583C8010E94131095
:1025000086E0F801AAEDB1E001900D928A95E1F71D
:102510000E94C210F7CE86E0F801AAEDB1E001906A
:102520000D928A95E1F7EECE4D875E878D859E856B
:102530000E947E1081116FCF8091DF0181608093B6
:10254000DF01C8010E941310DDCE7A2DB98AA88A56
:102550006E2D89890E94821086E0F60111928A957B
:10256000E9F7D6CFEE2009F465CF4D875E878D85DC
:102570009E850E947E10F82E882309F45BCF86E0AA
:10258000F801AAEDB1E001900D928A95E1F78AED8C
:1025900091E00E94EF0C0E94D010BACF81E08E250E
:1025A000CBCE88EC90E008951F93CF93DF93CDB707
:1025B000DEB72C970FB6F894DEBF0FBECDBF4F83AA
:1025C000588769877A878B879C87CE0107960E94F8
:1025D0002611882369F08A859B85892B39F04F81E4
:1025E0005885842F85238F3F09F071C016E05FC0A6
:1025F00086E0FE013796DE01119601900D928A95D4
:10260000E1F78A859B85892B89F38F8198858923BA
:102610008F3F61F32091A90130E0C90101968770D5
:1026200099274091A8014817190671F40E945B1080
:102630001092A9011092A80186E0EAEDF1E0DF0115
:102640001D928A95E9F7D2CF96E0929FD001939F91
:10265000B00D1124A655BE4FFE01319601900D928A
:102660009A95E1F78093A9010E94A110BFCF819FA5
:10267000C001112486559E4F0E9426118823E9F03F
:10268000E091A8011E9FF0011124E655FE4F408104
:10269000518162817381848195810E949110809122
:1026A000A80190E00196877099278093A8018091F6
:1026B000A8019091A9018913DACF2C960FB6F8944E
:1026C000DEBF0FBECDBFDF91CF911F910895698509
:1026D0007A858B859C850E94911088CFEF92FF921E
:1026E0000F931F93CF93DF938C01892B81F0F12CF3
:1026F000EE24E394E8012196F8018491843770F484
:10270000843008F05FC08130B1F08230A1F1DF91F8
:10271000CF911F910F91FF90EF900895853709F4A5
:102720004CC008F43DC09CE7980F903780F78F7736
:102730000E947E0D49C00E5F1F4FFE01849190E202
:10274000980F983060F48770FE2D01C0FF0F8A95B6
:10275000EAF78F2F0E9403160E942C1602C00E94D7
:10276000F40C8F2D815030F2EFE9FFE03197F1F753
:1027700000C00000F7CF0E5F1F4FFE01849190E272
:10278000980F983050F48770FE2D01C0FF0F8A9586
:10279000EAF78F2F0E940916DFCF0E947E0DE1CF4E
:1027A0000E5F1F4FFE01C491C150D8F28FE99FE028
:1027B0000197F1F700C00000F7CF0E5F1F4FFE0139
:1027C000F490CFCF0E94F40C8E01CBCF08950C94DF
:1027D000E6130E94E7136093020270930302809352
:1027E0000402909305020C94491008950C94E91387
:1027F0000F931F9300910202109103022091040293
:1028000030910502602B712B822B932B1F910F911E
:102810000C94E9130F931F9300910202109103028D
:1028200020910402309105026023712382239323B7
:102830001F910F910C94E9130F931F9300910202C3
:102840001091030220910402309105026027712744
:10285000822793271F910F910C94E9130C94E61390
:102860000C942E140E9430146093FE017093FF01AB
:1028700080930002909301020C94491060E070E094
:10288000CB010C9432140F931F9341E050E060E0B1
:1028900070E08A019B0104C0000F111F221F331F2B
:1028A0008A95D2F7C901B8011F910F910C94321487
:1028B0000F931F9341E050E060E070E004C0440FCC
:1028C000551F661F771F8A95D2F78091FE01909160
:1028D000FF01A0910002B09101028A019B01082B27
:1028E000192B2A2B3B2BC901B8011F910F910C9476
:1028F00032140F931F9341E050E060E070E004C099
:10290000440F551F661F771F8A95D2F7CB01BA0176
:1029100060957095809590950091FE011091FF0152
:1029200020910002309101026023712382239323BE
:102930001F910F910C9432140F931F9341E050E0BC
:1029400060E070E004C0440F551F661F771F8A9532
:10295000D2F78091FE019091FF01A0910002B09109
:1029600001028A019B01082719272A273B27C90151
:10297000B8011F910F910C9432140F931F93009183
:10298000FE011091FF012091000230910102602BA5
:10299000712B822B932B1F910F910C9432140F9358
:1029A0001F930091FE011091FF01209100023091D0
:1029B000010260237123822393231F910F910C94B2
:1029C00032140F931F930091FE011091FF0120918B
:1029D00000023091010260277127822793271F91FF
:1029E0000F910C94321408952CE0929F800D1124C5
:1029F000982F977041E001C0440F9A95EAF78695A9
:102A00008695869595E0899FF0011124E052FE4F4E
:102A100090E080E070E05191DF0111979B01082E5A
:102A200002C0369527950A94E2F721702195252753
:102A3000242325272C9301968530910561F708956D
:102A40002CE0929F800D1124982F97708695869583
:102A5000869525E0829FF0011124E052FE4F50E060
:102A600040E080E0219130E0092E02C036952795A4
:102A70000A94E2F721703327042E01C0220F0A9432
:102A8000EAF7822B4F5F5F4F4530510559F70895A4
:102A9000BF92CF92DF92EF92FF920F931F93CF934B
:102AA000DF938C01C090FE01D090FF01E090000206
:102AB000F09001028091020290910302A091040221
:102AC000B0910502C82AD92AEA2AFB2ACFE1D0E030
:102AD000BC2ED701C6010C2E04C0B695A7959795BC
:102AE00087950A94D2F780FD0EC0219788F7B12C04
:102AF0008B2DDF91CF911F910F91FF90EF90DF9081
:102B0000CF90BF900895B8018C2F0E94A604019722
:102B100061F3EECFCF93DF93EC010E944815BE0125
:102B2000DF91CF910C94A6041F93CF93DF93EB0119
:102B30009091A701992331F0CB01DF91CF911F91A3
:102B40000C948A15882379F0CB010E944815182F20
:102B5000682FCE010E94F414BE01812FDF91CF9126
:102B60001F910C94A604CB010E942015182FF4CFBE
:102B7000682F80910001909101010C941918682F21
:102B800080910001909101010C9424188091000122
:102B9000909101010C942F188091060285958595DE
:102BA0008595089580910602877008959091060298
:102BB000977081E009F480E0089580912A020895D9
:102BC00090912A02892B80932A02089580959091F2
:102BD0002A02982390932A02089580932A02089546
:102BE00010922A02089590912902892B809329023C
:102BF0000895809590912902982390932902089531
:102C000010922902089590912802892B809328021E
:102C10000895809590912802982390932802089512
:102C200010922802089580910702089508950C9447
:102C3000161690910702981721F0809307020C94C2
:102C40001716089580910702882329F01092070231
:102C500080E00C9417160895E0910001F0910101B5
:102C600080912A028083E0910001F091010180812E
:102C700090912902892B8083E0910001F09101015C
:102C8000808190912802892B80839091070299235B
:102C900081F0E0910001F09101018081892B808316
:102CA00080910001909101010E94631781110E949F
:102CB000221680910001909101010C944C0B089513
:102CC0000C945F1698E0899F90011124622B609309
:102CD00006020E9458148091060285958595859577
:102CE0000C9460161092060280E00C94601690918D
:102CF00006028095892380930602282F277071F49D
:102D0000282F082E000C330B9217130639F08595E7
:102D1000859585950E9479140C9472160895909368
:102D20008F0180938E010895829590E09C01220F7F
:102D3000331F220F331F2C7C95958795959587958A
:102D40008373282B30E0C901880F991F8A7A359543
:102D500027952575822B0895CF93DF93D92F0E9455
:102D60009416C82F8D2F0E9494169C2FDF91CF911F
:102D700008956FEF7FEF90E080E00C94FE2090E0EC
:102D800080E00E94DA2021E08C3E9E4F09F020E096
:102D9000822F089582E090E00C94D22083E090E0AE
:102DA0000C94D220CF9384E090E00E94D220C82FD0
:102DB00081E290E00E94D220982F8C2FCF9108952D
:102DC000CF93C92F682F84E090E00E94E0206C2F01
:102DD00081E290E0CF910C94E020AB01BC018FE048
:102DE00090E00C94F220AB01BC0183E190E00C94E4
:102DF000F22060E070E0CB010C94F31660E070E02C
:102E0000CB010E94ED160C94F9166CEE7EEF90E06B
:102E100080E00E94FE2060E082E090E00E94E020DE
:102E200060E083E090E00E94E020109202021092A5
:102E30000302109204021092050260E084E090E028
:102E40000E94E02060E081E290E00E94E02060E0EB
:102E500085E090E00E94E02060E086E090E00E9443
:102E6000E0206FEF87E090E00E94E02040E050E03B
:102E7000BA0188E090E00E94F22060E08DE090E0EE
:102E80000E94E02040E050E0BA0188E190E00E941A
:102E9000F22060E087E190E00E94E02040E050E016
:102EA000BA018CE190E00E94F22060E080E290E0C4
:102EB0000E94E0200C94FE160C940517682F8EE0FB
:102EC00090E00C94E020FC01329680910C01882364
:102ED00021F080916B029EE187FF96E080E09150A7
:102EE00008F4089521912223D1F38F5FF8CF662350
:102EF00001F120910C012223F1F020916B0227FFB8
:102F00001AC0462F4695469546954E3190F4677007
:102F100021E030E002C0220F331F6A95E2F7840FF0
:102F2000911DFC01828190E02823392381E0232B2D
:102F300069F480E00895FC013296089621912617E5
:102F400021F0E817F907D1F7F4CF81E008959C014B
:102F5000FC0132969FEF80E04191461751F09F3F70
:102F600019F4411101C0982F8F5F8630A9F79F3F58
:102F700009F40895290F311D97FD3A95F9016283EF
:102F80000895FC01329608962191261303C0DF01B3
:102F900011971C92E817F907B9F70895E62FE695FF
:102FA000E695E695EE3170F4E80FF92FF11D6770A4
:102FB00021E030E001C0220F6A95EAF78281822B7E
:102FC0008283089580912B0280FF0CC01F926F9323
:102FD00088EC92E09F938F930E942F030F900F90A5
:102FE0000F900F900895E62FE695E695E695EE3161
:102FF00078F4E80FF92FF11D677021E030E001C08F
:10300000220F6A95EAF7209582812823228308956A
:1030100080912B0280FF0CC01F926F938AEA92E08E
:103020009F938F930E942F030F900F900F900F90FC
:10303000089520910C01222329F020916B0227FD95
:103040000C94CE170C94A71720910C01222329F081
:1030500020916B0227FD0C94F3170C94C117FC010F
:10306000329680910C01882351F080916B0287FF8A
:1030700006C08EE1DF011D928A95E9F7089586E08A
:10308000F9CF089508950C9442180E944318809136
:103090007102843049F110922C0288E190E020E422
:1030A0000FB6F894A895809360000FBE209360003F
:1030B00080E00E9416040E94431883B7817F8460D9
:1030C00083BF83B7816083BF7894889583B78E7FF1
:1030D00083BF0FB6F894A8958091600088618093B3
:1030E0006000109260000FBE08950895CF930E9473
:1030F00041180E9447070E947518C0E08C2F0E945B
:103100009206892B31F4CF5FC430C1F780E0CF91B4
:10311000089581E0FCCF08950C948B180E945B10F9
:103120000E94400B0E9416040C948C181F921FB62C
:103130001F9211248F939F93AF93BF9380912C0282
:10314000811113C08091670290916802A091690279
:10315000B0916A024196A11DB11D809367029093C0
:103160006802A0936902B0936A02BF91AF919F91E8
:103170008F911F901FBE1F90189582E084BD93E031
:1031800095BD9AEF97BD80936E0008952FB7F89480
:103190008091670290916802A0916902B0916A02E1
:1031A0002FBF08959C014FB7F894809167029091CA
:1031B0006802A0916902B0916A024FBF821B930B13
:1031C000089578941F921FB61F9211248F939F9396
:1031D000AF93BF938091670290916802A0916902BA
:1031E000B0916A020196A11DB11D80936702909370
:1031F0006802A0936902B0936A02BF91AF919F9158
:103200008F911F901FBE1F90189581E08093E00062
:1032100080E28093D8001092C9008FE19EE401976C
:10322000F1F700C0000087E090EBDC0180937A02A8
:1032300090937B02A0937C02B0937D0288E19CE096
:103240000FB6F894A895809360000FBE909360002D
:10325000FFCF0C94B9160E9447078FE39CE90197B2
:10326000F1F700C000000E94470780E00E9492062C
:1032700080FF04C00E9429190C94051908950E942A
:10328000BF16811102C00E945C170E94CA1680936B
:103290002B020E94D21690936C0280936B020E94C4
:1032A000CE16682F70E090E080E00E94F6136091E7
:1032B000FE017091FF0180910002909101020C9437
:1032C000301480915002089508959FB7F894109299
:1032D0002F029FBF90917102943009F048C0209155
:1032E000E9002F703091EC00932F917030FD90E841
:1032F000922B23E02093E9002091EB0020FF34C0C3
:103300002091EE0027FF30C020912D02222321F0D2
:103310002091E80025FF28C010922D0226E0309170
:10332000E80035FF14C08093F1008091E80085FD2E
:1033300027C08091E80080FFFCCF8091E8008E7765
:103340008093E8009F709093E90080E008953091A9
:103350007102343049F43091EB0035FD05C0215045
:1033600041F481E080932D029F709093E9008FEFEC
:103370000895EFE9FFE03197F1F700C00000CFCFEB
:103380008FB7F89421E020932F028FBFDBCFCF932C
:10339000DF9300D00F92CDB7DEB7909171029430D9
:1033A00019F589837B836A8382E08093E9008FEF3C
:1033B0009091E800815095FD06C095ED9A95F1F742
:1033C00000008111F5CF8091E80085FF0DC050E02D
:1033D00040E063E070E0CE0101960E94301C8091D5
:1033E000E8008E778093E8000F900F900F90DF91A8
:1033F000CF910895BC0184E00C94C719BC0183E00F
:103400000C94C719CF93DF93EC0180910C018823B2
:10341000B1F180916B0287FF32C060E282E080935D
:10342000E9008FEF9091E800815095FD06C095ED81
:103430009A95F1F700008111F5CF8091E80085FFA2
:103440001BC080910C0170E050E040E0811104C08D
:1034500050E040E068E070E0CE010E94301C8091B6
:10346000E8008E778093E80080E2FE01A0E3B2E0FE
:1034700001900D928A95E1F7DF91CF91089568E070
:1034800081E0CDCF8BE093E00E94960280917002A4
:10349000811109C00E94C01D0E941D1E8091E20082
:1034A00084608093E200089587E093E00E94960292
:1034B00010927002089583E093E00C9496028FEFCF
:1034C00092E00C9496028BEF92E00E9496020C948C
:1034D0008E1820912E022F5F822F62E30E94C0205F
:1034E000992319F020932E02089510922E028091B4
:1034F0002F028823F1F0809171028430C1F4909101
:10350000E9009F702091EC00822F817020FD80E8FF
:10351000892B93E09093E9009091EB0090FF04C019
:103520009091EE0097FD08C08F708093E900109293
:103530002F0208951092F1009091E80095FDFACFC6
:103540009091E80090FFF0CF9091E8009E779093E3
:10355000E800EACF42E061EC81E00E943C1D42E2DB
:1035600061EC82E00E943C1D42E261EC83E00C943D
:103570003C1D80917302833009F45FC030F48130C8
:10358000C1F1823009F49BC008958A3009F487C0E4
:103590008B3009F46DC0893009F04EC08091720201
:1035A000813209F049C080917602909177020297AA
:1035B00008F042C08091E800877F8093E800809106
:1035C000E80082FF35C09091F3008091F2000297ED
:1035D00029F48091F1008B7F813021F48091F100FA
:1035E000809350028091E8008B778093E8000C94E0
:1035F000701D80917202813AF9F48091E800877F12
:103600008093E8008091760290917702892B61F493
:1036100060E280E392E070E00E947F1C8091E8000D
:103620008B778093E800089560E090E080E0F3CF2E
:10363000809171028111C3CF089580917202813A05
:10364000D9F78091760290917702892BA9F7809122
:10365000E800877F8093E8008091E80080FFFCCF3E
:1036600080910C018093F1008091E8008E77BDCFAE
:1036700080917202813201F78091760290917702F7
:10368000892BD1F68091E800877F8093E8000E9423
:10369000701D8091740280930C010C945B108091DA
:1036A0007202813249F68091E800877F8093E800BA
:1036B0000E94701D8091750280935102089580913F
:1036C0007202813A09F0B8CF8091E800877F809339
:1036D000E8008091E80080FFFCCF80915102C2CFCA
:1036E00084B7877F84BF0FB6F894A8958091600057
:1036F000886180936000109260000FBE80E890E0C7
:103700000FB6F89480936100909361000FBE0E9401
:10371000E10B0E94C01D0E941D1E8091E20084608A
:103720008093E20085E699E10E948F1678940E94CA
:10373000A5200E94EB0B82E091E00E943B0B8AEEF9
:1037400092E00E94960280917102853019F00E94E9
:103750001B0CF9CF86EE92E00E9496020E9445185B
:1037600080916F02882379F30E947618882359F399
:103770000E941A1CE8CF0C94BD1B292F332723303D
:10378000310521F168F42130310509F449C02230B6
:10379000310509F44AC090E080E030E020E029C023
:1037A0002132310581F122323105A9F763307105EB
:1037B00090F7FB01EE0FFF1FEE57FE4F2081318186
:1037C00061587E4FFB01808190E013C099278130C2
:1037D000910599F0009741F08230910589F00397A7
:1037E000D1F6EFE0F3E002C0E1E4F3E0849190E091
:1037F0009F01FA01318320830895E1E3F3E0F6CFDE
:10380000E5E1F3E0F3CF6330710528F6660F771F2B
:10381000FB01E857FE4F2081318189E090E0E9CF3C
:1038200082E190E020EA33E0E4CF8BE590E025E40C
:1038300033E0DFCF80E189BD82E189BD09B400FEBC
:10384000FDCF8091D8008F7D8093D8008091E000DB
:1038500082608093E0008091E00081FDFCCF0895BC
:10386000AF92BF92CF92DF92FF920F931F93CF93AD
:10387000DF936C01EB018A010E948F1DF82E8111EC
:1038800023C00115110539F0F80180819181C81B11
:10389000D90BC80ED91EB12CA12C2097A9F080916C
:1038A000E80085FD22C08091E8008E778093E800D3
:1038B00001151105A1F0F80180819181A80EB91EB2
:1038C000B182A08285E0F82E8F2DDF91CF911F91DC
:1038D0000F91FF90DF90CF90BF90AF9008950E941E
:1038E0008F1D8823D1F2F82EEFCFF60181916F0161
:1038F0008093F1002197FFEFAF1ABF0ACECFFC01F2
:10390000809178029091790286179707A0F061154F
:10391000710529F49091E8009E779093E80090E07B
:103920006115710551F4911108C08091E80082FF82
:1039300034C080E00895BC01F2CF809171028823E9
:10394000C1F18530C1F18091E80083FD30C08091E4
:10395000E80082FDEACF8091E80080FFE1CF80910E
:10396000F3002091F200382F6115710519F028300D
:10397000310558F091E02830310509F090E02091B0
:10398000E8002E772093E800CBCF81918093F1005F
:10399000615071092F5F3F4FE7CF809171028823FB
:1039A00041F0853041F08091E80083FFBECF81E097
:1039B000089582E0089583E00895FC0180917802E3
:1039C0009091790286179707A0F06115710529F487
:1039D0008091E8008E778093E80090E06115710592
:1039E00051F4911108C08091E80082FF35C080E059
:1039F0000895BC01F2CF809171028823C9F185300E
:103A0000C9F18091E80083FD31C08091E80082FD1A
:103A1000EACF8091E80080FFE1CF8091F300209110
:103A2000F200382F6115710519F02830310558F072
:103A300091E02830310509F090E08091E8008E7720
:103A40008093E800CBCF84918093F1003196615050
:103A500071092F5F3F4FE6CF80917102882341F0BB
:103A6000853041F08091E80083FFBDCF81E008956B
:103A700082E0089583E00895982F973028F08F70A2
:103A80008093E90081E008959093E900242F762F38
:103A900050E0981731F07091EC002091ED005091BA
:103AA000F00021FD02C09F5FE8CF3091EB003E7F28
:103AB0003093EB003091ED003D7F3093ED0030917D
:103AC000EB0031603093EB007093EC002093ED003D
:103AD0005093F0002091EE0027FDE5CF80E008959F
:103AE0008091720287FF13C08091E80082FF06C0B8
:103AF0008091E8008B778093E80004C08091710288
:103B00008111F2CF0895809171028823D9F38091B9
:103B1000E80080FFF8CF8091E8008E77ECCF20910D
:103B2000E4003091E50095E6A9012091EC00822F98
:103B3000817020FF06C08091E80080FF06C080E011
:103B400008952091E80022FD1AC080917102882317
:103B500089F0853089F08091EB0085FD0FC02091C0
:103B6000E4003091E50042175307F9F29150E1F675
:103B700084E0089582E0089583E0089581E0089547
:103B80000E942E1E0E94361EE0EEF0E080818160D1
:103B90008083E8EDF0E080818F77808319BCA7ED0A
:103BA000B0E08C918E7F8C9380818F7E8083109289
:103BB000700208950F931F93CF93DF930E942E1EE0
:103BC0000E94361EC8EDD0E088818F778883888177
:103BD0008068888388818F7D888319BC10927102E8
:103BE00010926D0210926F0210926E0200EE10E0C1
:103BF000F80180818B7F808388818160888342E0A7
:103C000060E080E00E943C1DE1EEF0E080818E7F6C
:103C10008083E2EEF0E08081816080838081886033
:103C20008083F80180818E7F808388818061888392
:103C3000DF91CF911F910F910895E8EDF0E0808121
:103C40008F7E8083E7EDF0E080818160808384E077
:103C500082BF81E0809370020C94DA1DE8EDF0E001
:103C600080818E7F80831092E20008951092DA00A6
:103C70001092E10008951F920F920FB60F92112437
:103C80002F933F934F935F936F937F938F939F9364
:103C9000AF93BF93EF93FF938091E10082FF0BC03E
:103CA0008091E20082FF07C08091E1008B7F8093CA
:103CB000E1000E94691A8091DA0080FF19C08091AA
:103CC000D80080FF15C08091DA008E7F8093DA00E3
:103CD0008091D90080FF96C080E189BD82E189BDD5
:103CE00009B400FEFDCF81E0809371020E94421A68
:103CF0008091E10080FF19C08091E20080FF15C033
:103D00008091E2008E7F8093E2008091E2008061EA
:103D10008093E2008091D80080628093D80019BC23
:103D200085E0809371020E945F1A8091E10084FF18
:103D30002BC08091E20084FF27C080E189BD82E131
:103D400089BD89B5982F917080FFFBCF8091D800F5
:103D50008F7D8093D8008091E1008F7E8093E10079
:103D60008091E2008F7E8093E2008091E20081608A
:103D70008093E20080916D02882309F449C084E0B9
:103D8000809371020E94631A8091E10083FF29C031
:103D90008091E20083FF25C08091E100877F8093BE
:103DA000E10082E08093710210926D028091E10047
:103DB0008E7F8093E1008091E2008E7F8093E2000D
:103DC0008091E20080618093E20042E060E080E068
:103DD0000E943C1D8091F00088608093F0000E945A
:103DE0005B1AFF91EF91BF91AF919F918F917F915E
:103DF0006F915F914F913F912F910F900FBE0F9058
:103E00001F90189519BC109271020E94541A70CF1D
:103E10008091E30087FD93E090937102B3CF1F92EE
:103E20000F920FB60F9211242F933F934F935F93EE
:103E30006F937F938F939F93AF93BF93CF93DF93B2
:103E4000EF93FF93D091E900DF708091EC00C82FD1
:103E5000C17080FDC0E81092E9008091F000877F7A
:103E60008093F00078940E94531F1092E900809193
:103E7000F00088608093F000CD2BCF70C093E900F4
:103E8000FF91EF91DF91CF91BF91AF919F918F9172
:103E90007F916F915F914F913F912F910F900FBE46
:103EA0000F901F9018951F93CF93DF93CDB7DEB778
:103EB000AA970FB6F894DEBF0FBECDBF82E792E09F
:103EC0002091F100FC012193CF01F2E08A379F0796
:103ED000B9F70E94B91A8091E80083FF1EC1809152
:103EE0007202909173029A3008F017C1E92FF0E046
:103EF000EC5CFE4D0C94CC20803899F0823809F0AF
:103F00000CC1809176028F70873008F006C18093D3
:103F1000E9008091EB0085FB882780F91092E90089
:103F200006C080916E0290916F0291118260909113
:103F3000E800977F9093E8008093F1001092F100E1
:103F40008091E8008E77E5C0882309F4D3C08230E1
:103F500009F0E3C0809174028111D6C0809176028D
:103F60008F702FEF280F263008F0D7C08093E9001C
:103F70002091EB0020FFC8C0933031F48091EB001A
:103F800080628093EB00C0C09091EB0090619093B1
:103F9000EB0021E030E001C0220F8A95EAF7209380
:103FA000EA001092EA008091EB008860EACF81116C
:103FB000B4C0109174021F778091E3008078812B48
:103FC0008093E3008091E800877F8093E8000E945F
:103FD000701D8091E80080FFFCCF8091E300806835
:103FE0008093E30082E0111183E08093710295C019
:103FF0008058823008F091C08091740290917502CF
:104000008C3D23E09207A1F583E08A838AE28983CD
:104010004FB7F894DE01139620E03EE051E2E32F23
:10402000F0E050935700E49120FF03C0E295EF7059
:104030003F5FEF708E2F90E0EA30C0F0C7968D930F
:104040009D932F5F243159F74FBF8091E800877F00
:104050008093E8006AE270E0CE0101960E947F1C26
:104060008091E8008B778093E80057C0C096E7CF37
:104070006091760270917702AE014F5F5F4F0E94B0
:10408000BB1BBC01892B09F448C09091E800977FC5
:104090009093E80089819A810E94DD1CE1CF8038ED
:1040A000E1F58091E800877F8093E80080916D02C0
:1040B0008093F10045CF811130C09091740292300D
:1040C00060F58091E800877F8093E80090936D020F
:1040D0000E94701D80916D02882311F084E005C05C
:1040E0008091E30087FDFACF81E0809371020E9406
:1040F000AA1A13C080917402813079F481E0933060
:1041000009F080E080936F021092E9008091E8004E
:10411000877F8093E8000E94701D8091E80083FFF4
:104120000AC08091E800877F8093E8008091EB00CF
:1041300080628093EB00AA960FB6F894DEBF0FBEA4
:10414000CDBFDF91CF911F910895CF9380917102E0
:104150008823A1F0C091E900CF709091EC00892FE5
:10416000817090FD80E8C82B1092E9008091E800F2
:1041700083FD0E94531FCF70C093E900CF91089533
:10418000991B79E004C0991F961708F0961B881FA9
:104190007A95C9F780950895EE0FFF1F0590F49169
:1041A000E02D0994F999FECF92BD81BDF89A992727
:1041B00080B50895A8E1B0E042E050E00C940621FB
:1041C000262FF999FECF92BD81BDF89A019700B4D0
:1041D000021639F01FBA20BD0FB6F894FA9AF99A70
:1041E0000FBE08950396272F0E94E1200E94E02031
:1041F000252F0E94E120242F0C94E1200196272FE7
:104200000E94E1200C94E020DC01CB01FC01F99933
:10421000FECF06C0F2BDE1BDF89A319600B40D9212
:1042200041505040B8F70895F894FFCF250E250E61
:104230007D0E7D0ECF0E520E520E520EEB0E770FEC
:10424000860F860FE20F520E520EEB0F6A106A10A5
:104250007310731075107310731073106A106A1056
:104260007A10731073107A107C1FA41F8D20A41F66
:0C4270008D20D71FF81F8D204F205B20F1
:10427C0008026119021A6419FE19FA1901E200E91F
:10428C0000EA00B500B600B700CD008301CC008A6F
:10429C000192019401210223022402250226022705
:1042AC00022A02B300B4006F007000818283F5F61D
:1042BC00F731333234C69766949091F43536E20078
:1042CC00E900EA00B500B600B700CD008301CC00D0
:1042DC008A01920194012102230224022502260262
:1042EC0027022A02B300B4006F0070008182834061
:0E42FC006D224104D403B203570370038903FB
:00000001FF
