:100000000C9430020C9477020C9477020C947702D3
:100010000C9477020C9477020C9477020C9477027C
:100020000C9477020C9477020C94F11D0C94C51E6D
:100030000C944C180C9477020C9477020C94770271
:100040000C9477020C9477020C9477020C9477024C
:100050000C9477020C9497180C9477020C94770206
:100060000C9477020C9477020C9477020C9477022C
:100070000C9477020C9477020C9477020C9477021C
:100080000C9477020C9477020C9477020C9477020C
:100090000C9477020C9477020C9477020C947702FC
:1000A0000C9477020C9477020C94770214001A00D7
:1000B000080015001700000000001C0018000C00CC
:1000C0001200130004001600070009000A000000D7
:1000D00000000B000D000E000F0033001D001B0080
:1000E0000600190005004C00AE001100100036009B
:1000F0003700380029002B00E300E1002A00E0006F
:10010000E2002C0001510251340028001E0234028A
:100110002F0230026402000000002D0024002500A0
:1001200026002502320021022602270235000000A7
:10013000000037002100220023002E0222022302A9
:100140002F00300032020100010024021E001F00B7
:100150002000640076003900360237024C000100AE
:1001600001002D020100010027002E0049004A0075
:1001700052004D004B0000000000A900400041006B
:10018000420043004C00500051004F004E00000060
:100190000000AA003D003E003F00440001000100B5
:1001A00001000100010001000100A8003A003B002D
:1001B0003C004500010001000100010001000100B8
:1001C00001000100010001000100005C44454255AE
:1001D000473A2064697361626C65642E0A00444585
:1001E0004255473A20656E61626C65642E0A000ACA
:1001F000002530313662003A200025303258000A9E
:10020000722F63203031323334353637383941423A
:10021000434445460A00556E69636F646520696E04
:10022000707574206D6F64652073657420746F3A07
:100230002025750A00556E69636F646520696E70CC
:100240007574206D6F646520696E697420746F3AEF
:100250002025750A000A002530325820006B657988
:10026000626F6172645F7265706F72743A20000A27
:100270000025303258006B6579626F6172645F737C
:1002800065745F6C65643A200064656C5F6B6579CA
:100290005F6269743A2063616E27742064656C3A0A
:1002A00020253032580A006164645F6B65795F62B3
:1002B00069743A2063616E2774206164643A202572
:1002C0003032580A005B735D004B6579626F617272
:1002D000642073746172742E0A005B575D005B5377
:1002E0005D005B525D005B445D005B435D000403A9
:1002F000300000001A0349006E0066006C006F00B9
:10030000720065007300630065006E0074000000F9
:100310000E03410072006300680069006500000080
:100320000403090409025B00030100A0FA090400A8
:100330000001030101000921110100012240000711
:1003400005810308000A09040100010300000009F7
:100350002111010001226D000705820320000A0916
:100360000402000203000000092111010001222201
:100370000007058303200001070503032000011285
:1003800001100100000008EDFE60600100010203A1
:10039000010631FF0974A1010975150026FF0095BA
:1003A00020750881020976150026FF009520750842
:1003B0009102C005010980A101850319012AB70036
:1003C000150126B700950175108100C0050C0901C3
:1003D000A101850419012AA002150126A002950198
:1003E00075108100C005010906A1018505050719E1
:1003F000E029E71500250195087501810205071917
:100400000029EF1500250195F075018102050819F5
:10041000012905950575019102950175039101C0AA
:1004200005010906A101050719E029E715002501C5
:10043000950875018102950175088101050719006C
:1004400029FF150026FF009506750881000508198B
:10045000012905950575019102950175039101C06A
:1004600011241FBECFEFDAE0DEBFCDBF04B603FE1E
:1004700027C08091790290917A02A0917B02B0917D
:100480007C028730904BA740B04BD1F41092790298
:1004900010927A0210927B0210927C0214BE84B7F2
:1004A000877F84BF0FB6F894A8958091600088611B
:1004B00080936000109260000FBEE0E0F8E30995C1
:1004C00011E0A0E0B1E0E8EEF1E402C005900D9289
:1004D000AE38B107D9F722E0AEE8B1E001C01D9215
:1004E000A937B207E1F70E94261B0C94CA200C948E
:1004F0000000FF93EF93E0918E01F0918F01309710
:1005000009F00995EF91FF910895FC0185918030E4
:1005100011F0EFDFFBCF0895FF27E0E230E247FF65
:100520000CC0419597FF09C0EDE2609570958095EC
:100530009095611D711D811D911D27FF02C02195A0
:1005400030E350E2AA27660F771F881F991FAA1F62
:10055000A41710F0A41B63955A95A9F7AA3008F0C8
:10056000A95FA05DAF93F3956115710581059105B4
:1005700041F7ED3211F4EF93F395F21718F43F932E
:10058000F395FBCF8F91B5DFFA95E1F70895E991E7
:10059000F9918591803021F0853219F0AADFF9CFE9
:1005A000089520E0E89455915532C1F3503311F489
:1005B000689455915A3348F4505390F3220F022E09
:1005C000220F220F200D250FF4CF0EF421958991D3
:1005D0009991533619F3533729F1533559F1BC0129
:1005E00088279927E8945C3621F489919991689439
:1005F0005591543639F446EF7EF077FF0DC08FEFFA
:100600009FEF0AC055374AE039F0583540E121F0F4
:10061000523642E009F00895FF93EF937DDFEF91AA
:10062000FF91B7CFFF93EF93FC0181918030B9F335
:1006300060DFFBCFFF93EF9368DFF1CFDF93CF93C2
:10064000CDB7DEB72596A3DFCF91DF9108950C9447
:100650007D0681E00895CF93DF939C013A952115A3
:100660003F4168F5EC01CC27D170DC01AA27B270BC
:10067000AC01442754709C012227387094FF11C0AC
:1006800080E1CD2B09F480E0AB2B09F08062452B93
:1006900009F08064232B09F08068FB01DF91CF9182
:1006A000099481E0CD2B09F480E0AB2B09F0826046
:1006B000452B09F08460232B81F38860EECFDF9116
:1006C000CF910895CF93DF93EC01805E9109089755
:1006D00020F061EF7FE0209711F466E97DE0CE0124
:1006E0000E942B038C2FDF91CF910C94AA0CCF93F7
:1006F000DF93EC010E94340DCE01805E91090897D2
:1007000020F068EF7FE0209711F46DE97DE0CE01E5
:10071000DF91CF910C942B03CF93DF93EC010E94D8
:100720006203CE01DF91CF910C94770381E00895AD
:100730000C94290308950C949A031F93CF93DF938D
:1007400000D000D00F92CDB7DEB749835A836B83B8
:100750003091A60189819A8131111DC06623B9F0BB
:100760002223A9F00E94FE14182F682F89819A81F4
:100770000E94AA1469817A81812F0F900F900F90A7
:100780000F900F90DF91CF911F910C947B040E94EA
:10079000D614182FEFCF0E94FE1469817A81EDCF15
:1007A000FC01262F408151816281738184810C94E8
:1007B0009D03CF93DF93EC0160E00E94D003BE0164
:1007C000DF91CF910C949B030E94E1180E94751653
:1007D000811102C00E9412170E940C080C9427037A
:1007E0000C947F06282F2F7041F0822F90E02A3042
:1007F00010F44D9608950697089587E290E00895C5
:1008000008950C94000481E008950C940304CF93A0
:10081000C82F0E9401048C2FCF910C9405040895D9
:100820000E9411100E940F042FEF84E39CE02150DE
:1008300080409040E1F700C000000C94BB180F937B
:100840001F93CF93DF93EC0161E00E94D0038C01F2
:10085000BE010E949803882341F1BE01C8010E9495
:10086000AB08882311F1BE01C8010E9452098823F8
:10087000E1F0BE01C8010E94A4098823B1F0BE01C5
:10088000C8010E94C70A882381F08A81882341F128
:1008900001308CE5180779F00E3D8CE51807E9F07A
:1008A00001151C45E9F40E94100480E0DF91CF910E
:1008B0001F910F91089590912A02892F8E7F90FFAA
:1008C000816080932A0280FF05C08EED91E00E9436
:1008D0008502EBCF8CEC91E0FACF0E941217E5CFA6
:1008E000CE01DF91CF911F910F910C94960390E070
:1008F00080E008950895972F70E02CE0929F600D9E
:10090000711D1124FB0190E3899FE00DF11D11245D
:10091000EE0FFF1FE455FF4F859194910895FC0160
:10092000EE0FFF1FE151FE4F859194910895CF93F3
:10093000DF930E947B040E94A305EC01811520E552
:10094000920708F041C0811530E4930708F0B4C065
:10095000803E910518F5803C910508F09DC0883ACD
:10096000910570F4853A910508F08EC081309105AB
:10097000F9F00097E9F00497D8F4D0E0C0E018C08F
:100980008F3B9105D0F7C85AD0E0CC0FDD1FC35F75
:10099000DE4F0990D881C02DD4640AC081159042E1
:1009A00058F4C11581E0D80718F4C83ED10528F7DE
:1009B000CE01DF91CF910895C11590E3D90708F0DA
:1009C00071C0CE019F706AC0811525E5920758F568
:1009D000811534E5930708F09EC0811542E5940720
:1009E00050F4C11581E5D80708F469C0DC2FCC2785
:1009F000C16FD06ADDCF982F969596959E01237092
:100A00003327C115D34508F077C0C1E0D0E002C05C
:100A1000CC0FDD1F2A95E2F720E2929FC00111243E
:100A2000C82BD92B67C0C11589E5D807A8F4C11513
:100A300098E5D90708F074C0C11526E5D20708F07B
:100A40009CCF8C2F0E943A06C82FD0E0DC2FCC27F9
:100A5000CC27DF71D062ACCFC1153AE5D30708F4DB
:100A600064C0CE0190568115904208F086CF8D2F3C
:100A70008F710E943A0690E0982F882788279F71EF
:100A80009C012C2BE901E6CFC55AD0E0C55CDE4FB6
:100A9000C881D0E0D0648CCF805C91090E948F0423
:100AA000EC0186CFCE019927D3FF03C0EC01D86CAF
:100AB0007FCFEC01D06C7CCFDF70D06A79CFCE01D4
:100AC000E4E096958795EA95E1F783702C2F2695BB
:100AD0002695237090E2299F90011124382B8C2FAA
:100AE0008370C1E0D0E002C0CC0FDD1F8A95E2F731
:100AF000C22BD32BDC685CCFC1E0D0E002C0CC0FAE
:100B0000DD1F2A95E2F730E2939FC0011124C82B24
:100B1000D92BDA684DCFD82FCC27C46FD06A48CFF5
:100B2000DC2FCC27C06FD06A43CF8C2F8F700E94F0
:100B30003A0634E0D695C7953A95E1F7CF709C2FE9
:100B4000EC01D06935CF82389105B1F1B0F4813331
:100B5000910509F475C048F48932910509F469C01A
:100B60008A32910509F473C008958533910509F41B
:100B700059C08933910501F10895833E9105A9F18A
:100B800038F4803E9105F9F0823E910549F10895CF
:100B9000863E9105A9F1873E9105C9F1843E9105F4
:100BA00019F520916B0221FF1FC080916A0284FD1C
:100BB00014C087EE90E0089520916A022370A1F09E
:100BC00080EE90E0089520916A0220FD47C03091A8
:100BD0006B0230FF09C024FF44C090E080E004C0F5
:100BE00020916A0222FDF7CF089520916A0222FD2A
:100BF0003BC030916B0230FDE3CF24FFF5CFEDCF4A
:100C000020916A0223FFF0CF24FDE7CFD2CF2091BD
:100C10006A0223FD2CC030916B0231FFEECF84EECF
:100C200090E0089520916A0225FFDECF89E290E0EE
:100C3000089520916A0225FFD7CF85E390E00895BB
:100C400020916A0226FFD0CF8AE290E00895209199
:100C50006A0226FFC9CF81E390E0089589E390E01E
:100C6000089583EE90E0089582EE90E0089586EE78
:100C700090E0089590916A0292FF06C0282F287193
:100C80002830F9F4877F846093FF06C0282F2871ED
:100C90002831F1F4877E846120916B0220FF06C029
:100CA000382F38713830D9F4877F816021FF06C032
:100CB000282F28712831D1F4877E816194FD877EA9
:100CC0000895282F24712430F9F68B7F8860DCCFBB
:100CD000282F2471243101F78B7E8861DDCF382FD6
:100CE0003171313019F78E7F8860E0CF282F217164
:100CF000213121F78E7E8861E1CF089508950C940B
:100D00007E06E82FF0E0EE0FFF1FE75AFD4F8081CF
:100D100091810895CF92DF92EF92FF920F931F93EC
:100D2000CF93DF938FEF91E00E94850289E5E82E53
:100D300082E0F82ED0E0C0E09AEFC92E91E0D92EE3
:100D400001EF11E0DF93CF93DF92CF920E941E0359
:100D500087EF91E00E948502F701819191917F01D7
:100D60000E9462169F938F931F930F930E941E03FE
:100D70008FEE91E00E94850221968DB79EB708966E
:100D80000FB6F8949EBF0FBE8DBFC430D105D1F60B
:100D9000DF91CF911F910F91FF90EF90DF90CF9057
:100DA000089580EA8A95F1F70895CF93DF93AAE436
:100DB000B1E04EE451E0C1E0D0E08D91E82FE29542
:100DC000EF70F0E061A18F709E0101C0220F8A9543
:100DD000EAF7922F9095962391A382A1822B82A36A
:100DE0004A175B0751F7AEE3B1E04AE451E0C1E0D6
:100DF000D0E08D91E82FE295EF70F0E061A18F7067
:100E00009E0101C0220F8A95EAF7922F90959623B2
:100E100091A382A1822B82A34A175B0751F71092FC
:100E200052021092510210925A02109259021092DC
:100E300054021092530210925C0210925B021092C4
:100E400056021092550210925E0210925D021092AC
:100E50005802109257021092600210925F0284E0D2
:100E60000E94BD07DF91CF910C94E4038F929F9273
:100E7000AF92BF92CF92DF92EF92FF920F931F93A8
:100E8000CF93DF938AE4E82E81E0F82E01E512E0AB
:100E9000912CAA24A394B12CF70181917F01C82F32
:100EA000C295CF70D0E099A18F70650101C0CC0CC4
:100EB0008A95EAF7892F8C2989A38AA18C2C8094A2
:100EC00088218AA30E94D106EEE3F1E050E040E0E1
:100ED00030E020E06191A62FA295AF70B0E090962F
:100EE0008C9190E06F7002C0959587956A95E2F7B6
:100EF00080FD3EC0C501042E02C0880F991F0A94D0
:100F0000E2F7282B392B4F5F5F4F4C30510511F71B
:100F100089A1882289A28AA1C82ACAA2F80180814F
:100F200091812817390739F13183208381E0982A8C
:100F30000E5F1F4FFEE4EF16F1E0FF0609F0ACCFA5
:100F4000292D44E069E572E081E592E00E94BE0748
:100F50000E94F003892DDF91CF911F910F91FF9097
:100F6000EF90DF90CF90BF90AF909F908F900895BB
:100F700090E080E0C6CF80E0DACF0895FF920F9333
:100F80001F93CF93DF93F82E092F162FD72FC42F3F
:100F9000222349F081E0809392010E947C18909373
:100FA000910180939001809192018823A1F080911A
:100FB0009001909191010E948818069760F0EF2DA2
:100FC000F02FA12FBD2F90E080E0D0E08C179D077F
:100FD00044F010929201DF91CF911F910F91FF90F9
:100FE0000895219131912D933D930196EFCFCF93A9
:100FF000DF93EC0197FF0CC0FB018281882341F055
:101000000E944A08CE019F770E948E080E947608AF
:1010100081E0DF91CF9108958CE090E00E948820DC
:10102000482F50E070E060E040936102509362020C
:10103000609363027093640290912A0290FF0CC047
:101040001F928F9385E392E09F938F930E941E03DC
:101050000F900F900F900F900895609161028CE0B7
:1010600090E00C949620809361020E942D0880915C
:101070002A0280FF0EC0809161021F928F9386E149
:1010800092E09F938F930E941E030F900F900F90FA
:101090000F9008950E949315809365020E94A615F3
:1010A00080916102813089F0882359F0823091F07B
:1010B0008430B9F08FE39CE90197F1F700C000009C
:1010C000089582EE0E94AA0CF5CF88E193E00E9479
:1010D0008C03F0CF82EE0E94AA0C87E50E94830D5C
:1010E000E9CF86EE0E94830D88E1F8CF80916102FE
:1010F000813071F0882341F0823031F0843061F02A
:10110000809165020C94A31582EE0E94340DF8CFF5
:101110008CE20E94830DF4CF88E2FBCF0F931F93E4
:10112000CF93DF938C01CCE0D0E0C8010C2E02C03D
:10113000969587950A94E2F78F700E94F2030E94B9
:101140008C032497CC3F8FEFD80779F7DF91CF91AD
:101150001F910F9108950F931F93CF93DF93EC018D
:101160008B01FB018281882351F00E949315CE01EF
:10117000815E9C458530910510F40E943308B801CA
:10118000CE01DF91CF911F910F910C94F707AF9291
:10119000BF92CF92DF92EF92FF920F931F93CF9364
:1011A000DF937C015B01C42FD22FFC018281882355
:1011B000F9F0409395010E947C18909394018093DC
:1011C000930180E28C0F883008F061C0C77081E025
:1011D00001C0880FCA95EAF7DF91CF911F910F9157
:1011E000FF90EF90DF90CF90BF90AF900C94960D52
:1011F00010919501141340C0809193019091940136
:101200000E9488186C01B701C5010E948712C81698
:10121000D90690F5C0E2CD0F1D17B9F080E2810F1D
:10122000883040F4177081E001C0880F1A95EAF702
:101230000E949D0DC83048F481E09D2F977001C039
:10124000880F9A95EAF70E94960D802F0E94830DD1
:10125000C830E8F4D77081E001C0880FDA95EAF76A
:10126000DF91CF911F910F91FF90EF90DF90CF9082
:10127000BF90AF900C949D0D80E28C0F883038F4B5
:10128000C77081E001C0880FCA95EAF7E9CFDF9106
:10129000CF911F910F91FF90EF90DF90CF90BF9073
:1012A000AF9008950F939C01CB01233F4CE5340789
:1012B00059F1A8F4283DFCE53F0701F1293D4CE533
:1012C0003407D1F1273D3C4591F406E221EE41EE91
:1012D00067ED7CE50E94C70880E00F910895253FE7
:1012E000FCE53F07E9F0B0F0263F3C45F9F0FC0192
:1012F0008281882339F110929501EFCF07E225EE24
:1013000045EE68ED7CE5E6CF06E221EE40EE63EFC8
:101310007CE5E0CF07E225EE44EE64EF7CE5DACF32
:1013200006E221EE42EE65EF7CE5D4CF07E225EE42
:1013300046EE66EF7CE5CECF08E221E045EE69EDB2
:101340007CE5C8CF81E0C9CFCF93DF93EC01FB01EF
:101350008281882309F419C1C230FCE5DF07C0F19E
:10136000C6319CE5D90730F09E012A5F3C45293003
:10137000310570F50E94881690936B0280936A0283
:10138000C031ECE5DE0709F4CFC008F05BC0C8301F
:101390008CE5D80709F4B6C088F5C430ECE5DE0763
:1013A00009F4A8C0C0F4C2308CE5D80709F49CC089
:1013B00080916A028260C330DC4509F498C0809154
:1013C0006A0290916B020E9496160E94111080E0B2
:1013D000DF91CF91089580916A028061C630ECE57B
:1013E000DE0709F484C080916A028860C730DC455A
:1013F00008F47DC080916A02806279C0CC308CE5AF
:10140000D80709F489C070F480916A028C60CA30F0
:10141000ECE5DE0709F46BC008F478C080916A023D
:101420008E7F65C0CE308CE5D80709F479C08091F5
:101430006A028B7FCF30DC4508F459C080916A0284
:101440008F7E55C0CB3FECE5DE0709F457C030F581
:10145000C3318CE5D80709F46FC078F4C131ECE5ED
:10146000DE0709F465C0C231DC4509F0A8CF0E944F
:10147000111080916A028F773AC0C5318CE5D80788
:1014800009F462C008F476C080916B028160CA3FA3
:10149000DC4509F094CF80936B0291CFCF3FFCE500
:1014A000DF0709F44DC088F480916B028D7FCD3F3A
:1014B0009CE5D90781F380916B028E7FCE3FDC459E
:1014C00050F380916B028360E6CFC130FDE5DF070A
:1014D00009F459C008F444C080E0C230DD4509F089
:1014E0006ECF0E9414176BCF80916A028160809347
:1014F0006A0265CF80916A028460F9CF80916B02A5
:101500008260C9CF80916A028064F1CF0E9411107D
:1015100080916A028068EBCF80916A028D7FE7CF6D
:1015200080916A02877FE3CF80916A028F7DDFCF4F
:1015300080916A028F7BDBCF80916A02837FD7CF55
:1015400080916B028C7FA7CF80916A0282FB9927E2
:1015500090F921E0922790FB82F990FB83F9C7CFA5
:1015600080916B02982F909591708E7F892B90FBC4
:1015700081F991CF0E94111090916A02892F97FBF7
:1015800087F98058B4CF81E0ACCF81E021CFCF93F1
:10159000DF93EB0186319C4511F50E9493159A81EA
:1015A000992399F08A7A91E009F490E0909396015A
:1015B000811109C089E20E946E150E94E21580E047
:1015C000DF91CF91089585E3F6CF80919601811147
:1015D00004C089E20E947515F0CF85E3FBCF81E05E
:1015E000EFCF90939C0180939B010895E0919B0124
:1015F000F0919C01309721F00190F081E02D099449
:1016000080E00895EF92FF920F931F93CF93DF93A3
:10161000EC01E0919B01F0919C01309709F446C0E8
:1016200080910C01882341F080916A0287FF04C0F9
:101630008881898385E088830280F381E02DCE0153
:10164000099580912A0282FF31C080FF04C08DE598
:1016500092E00E94850210E000E087E5E82E82E03B
:10166000F82E80912A0280FF0EC0FE01E00FF11FCC
:1016700080811F928F93FF92EF920E941E030F9022
:101680000F900F900F900F5F1F4F0830110549F713
:1016900080912A0280FF0AC085E592E0DF91CF9118
:1016A0001F910F91FF90EF900C948502DF91CF91E5
:1016B0001F910F91FF90EF90089520919901309123
:1016C0009A012817390771F090939A018093990134
:1016D000E0919B01F0919C01309721F00680F78109
:1016E000E02D0994089520919701309198012817D1
:1016F000390771F09093980180939701E0919B01D5
:10170000F0919C01309721F00084F185E02D09943F
:10171000089585B7806885BF85B7806885BF0895BF
:10172000089508950C94900B08950C94940B0E94C6
:10173000890B0E94910B0C94920B81E008950C94FC
:101740009D0B0E9473180E94D5060E94F5180C94F8
:10175000950BCF93C82F80912A0282FF1EC080FF75
:101760001CC086E792E00E94850280912A0280FFD9
:1017700014C01F92CF9381E792E09F938F930E94B2
:101780001E0380912A020F900F900F900F9080FF00
:1017900004C08FE692E00E9485028C2FCF910C94BA
:1017A00007049F92AF92BF92CF92DF92EF92FF9287
:1017B0000F931F93CF93DF93CDB7DEB72A970FB662
:1017C000F894DEBF0FBECDBF0E9436070E949F0B6C
:1017D000882309F46DC05EE9A52E51E0B52E10E016
:1017E00000E0902E802F0E9481066C01F501E190AF
:1017F000F1905F01E816F90609F454C080912A02BD
:1018000081FD0E948A0697012C253D2580E0EE246B
:10181000E394F12CA9014E215F21452BE9F18E8340
:101820009F82CE20DF2081E0CD2809F480E08887E8
:101830000E947C188160782F9A8789874E815F810A
:1018400068858A850E947B0C000F111FF801E25603
:10185000FE4F80819181E826F926F182E0820E9484
:10186000F60A90919D018917A1F10E94F60A8093D2
:101870009D012A960FB6F894DEBF0FBECDBFDF9153
:10188000CF911F910F91FF90EF90DF90CF90BF907D
:10189000AF909F900C94A90B8F5FEE0CFF1C8C30C7
:1018A00009F0B8CF0F5F1F4F0430110509F099CF31
:1018B0008FEF89838A831B820E947C188160782F36
:1018C0009D838C8349815A816B818D810E947B0C21
:1018D000C6CF2A960FB6F894DEBF0FBECDBFDF91FC
:1018E000CF911F910F91FF90EF90DF90CF90BF901D
:1018F000AF909F900895CF93DF93CDB7DEB72B972E
:101900000FB6F894DEBF0FBECDBF4F8358876987EF
:101910007A878B871E821D8285E0FE013796DE0165
:10192000119601900D928A95E1F749815A816B8158
:101930007C818D819E812B960FB6F894DEBF0FBE01
:10194000CDBFDF91CF910C948A12FC0180819181EF
:101950000C944015CF93C82F882309F483C0823894
:10196000C1F40E94F60A81FD7DC089E30E946E15D4
:101970000E94E2152FEF81EE94E0215080409040CC
:10198000E1F700C0000089E30E947515CF910C9427
:10199000E2158338A1F40E94F60A80FD63C083E556
:1019A0000E946E150E94E2152FEF81EE94E0215007
:1019B00080409040E1F700C0000083E5E5CF843827
:1019C000A1F40E94F60A82FD4DC087E40E946E15C4
:1019D0000E94E2152FEF81EE94E02150804090406C
:1019E000E1F700C0000087E4CFCF8CEF8C0F813A85
:1019F00090F46C2F80910001909101010E942D17AD
:101A0000882329F08C2F0E9475150E94E2158C2FD7
:101A10000E946E15BBCF80E28C0F883048F4C770EF
:101A200081E001C0880FCA95EAF70E949615AECFF3
:101A3000EBE5EC0FE33040F4F0E0E458FE4F80813A
:101A400090E0CF910C945D0BC85AC73158F4EC2F3D
:101A5000F0E0EE0FFF1FE25BFE4F80819181CF919E
:101A60000C94730BCF910895882309F44BC08238EE
:101A700071F40E94F60A81FF45C089E30E946E1549
:101A80000E94E21589E30E9475150C94E2158338D3
:101A900059F40E94F60A80FF35C083E50E946E1556
:101AA0000E94E21583E5EFCF843859F40E94F60ACC
:101AB00082FF28C087E40E946E150E94E21587E429
:101AC000E2CF9CEF980F913AF0F290E2980F9830A5
:101AD00050F4877091E001C0990F8A95EAF7892F39
:101AE0000E949C15D2CF9BE5980F933020F490E094
:101AF00080E00C945D0B885A873120F490E080E000
:101B00000C94730B0895CF93C82F0E94AA0CC9336D
:101B100049F42FEF87EE93E0215080409040E1F7A9
:101B200000C000008C2FCF910C94340D882321F03D
:101B30000E9496150C94E2150895882321F00E94C6
:101B40009C150C94E2150895BF92CF92DF92EF920C
:101B5000FF920F931F93CF93DF936C01D62FC72F64
:101B6000FC01058102950F70128111110E94B615BA
:101B70000E948C15E82E882391F01123D1F08C2F30
:101B8000807F803421F080E28D0F883090F082E0F9
:101B90000E942D160E948C1591E0E82EE926BC2E9D
:101BA000B2949FE0B922EB2DF0E0E453FF4D0C948A
:101BB0008220E12CF4CF0C2F0F70C07F11F0029522
:101BC000007F1123A9F0002359F080E28D0F8830A7
:101BD00010F0D11109C0802F0E9496150E94E215C5
:101BE0008D2F0E94AA0C14C0802F0E94A915F6CF39
:101BF0008D2F0E94340D002359F080E28D0F883024
:101C000010F0D1112CC0802F0E949C150E94E2156B
:101C10002B2D2850330B2430310520F40E94F60A76
:101C20000E940704EE2009F493C10E94881580FDEC
:101C30008FC1F60112820E9482150E940E14C60105
:101C40000E94C90F0E948215DF91CF911F910F91C1
:101C5000FF90EF90DF90CF90BF900C942F14802FC7
:101C60000E94AF15D3CFFC2FFF70FF2EC07FC03274
:101C700019F0F29480EFF822DD2369F0D13049F1B8
:101C8000112391F1002351F1F601858180FFA8CF46
:101C90008F70858323C0112381F0011106C00E943B
:101CA000C9158F290E94960DB3CF0130C1F70E944C
:101CB000C9158F290E94CF15ABCF011106C00E9414
:101CC000D8158F2D0E949D0DA3CF013009F4A0CF10
:101CD000F6CF112329F0063008F09ACF8F2DE2CFEE
:101CE000053008F095CFEDCF002359F3D93349F4EF
:101CF000FFEF27EE33E0F15020403040E1F700C025
:101D000000008D2F0E94340D83CF8C2F86958695F1
:101D1000837069F0813009F07BCF8D2F9C2F9370F9
:101D2000111102C090E080E00E94730B71CF8D2FE3
:101D30009C2F9370111102C090E080E00E945D0B17
:101D400067CF8C2F837009F041C0111161CF4D2FE7
:101D5000429546954770440F440F0D2F0F7010E0C9
:101D600030E020E0042E04C0000F111F221F331F9B
:101D70000A94D2F760E070E0CB01D4FF0FC06FE0AF
:101D800070E080E090E004C0660F771F881F991F05
:101D90004A95D2F76095709580959095C695C695B1
:101DA000C370602B712B822B932BC23049F058F4F7
:101DB000C13019F00E94C0132BCF0E94AE1328CF60
:101DC0000E94D21325CF0E94AC1322CF86951123F7
:101DD00011F08C2F8170882309F41ACF4D2F429572
:101DE00046954770440F440F0D2F0F7010E030E000
:101DF00020E0042E04C0000F111F221F331F0A947D
:101E0000D2F760E070E0CB01D4FF0FC06FE070E06C
:101E100080E090E004C0660F771F881F991F4A95E5
:101E2000D2F76095709580959095C695C695C370CC
:101E3000602B712B822B932BC23049F058F4C130A8
:101E400019F00E948514E4CE0E947314E1CE0E9422
:101E50009714DECE0E94E813DBCECF70112329F059
:101E60008C2F0E940E148D2F1DCF8D2F0E949D0D43
:101E70008C2F0E942F14CCCED23F89F160F4D03F3A
:101E8000C9F0D13F29F1112309F442C00111A8CEB4
:101E90008C2F8F7121C0D33F39F1D43FA1F711238B
:101EA00069F1CF718C2F0E940E1463E08C2F0E9479
:101EB0001816AECE112341F0053008F0A9CE8C2FB4
:101EC0008F710E945214A4CE063008F0A1CEF7CF35
:101ED0008C2F8F71112369F20E940E1499CE8C2FD2
:101EE0008F711123C9F3C5CF112329F08C2F8F7166
:101EF0000E94F9138DCE0E94F4138ACE81E00E94D5
:101F00002D16023008F484CE82E00E942D1680CE79
:101F1000002359F0D93309F0F4CE8FEF97EEE3E0C8
:101F200081509040E040E1F7EACE8C2F8F71A1CF35
:101F30004C2F4F706D2FC6010E9477040E9424130E
:101F400067CE4C2F4F706D2FC6010E947A0460CE71
:101F5000DF91CF911F910F91FF90EF90DF90CF9085
:101F6000BF9008950F931F93CF93DF93EC01688187
:101F700079818A810E944A158C010E94A9140E94CD
:101F8000AB13B801CE01DF91CF911F910F910C944B
:101F9000A40DCF93DF93EC018B819C81892B29F0D9
:101FA0008881998189238F3F59F4DF91CF910895DA
:101FB000CE010E94B20FCE01DF91CF910C94D903D4
:101FC000CE010E941F048111F3CF0E948C1588233B
:101FD00061F38A81882349F382E0DF91CF910C94E9
:101FE0002D16882321F00E94A9150C94E21508955E
:101FF000882321F00E94AF150C94E21508950E94E9
:10200000B6150E94C6150E94E21590E080E00E947D
:102010005D0B90E080E00C94730B0E947C150C9497
:10202000FF0F0E94A6150C940D10E92FE295EF709A
:10203000E250EE3070F4F0E0E452FF4D0C94822058
:10204000803F19F020F4883E20F481E00895843F19
:10205000E1F380E00895883EC0F3813FD1F7F5CFEA
:1020600093FB882780F908950E9440150C94151061
:10207000CF93DF9300D000D00F92CDB7DEB70F9093
:102080000F900F900F900F90DF91CF910895CF9305
:10209000DF9300D000D000D0CDB7DEB726960FB6C4
:1020A000F894DEBF0FBECDBFDF91CF9108951F938F
:1020B000CF93DF93C091A70116E08091A8018C1304
:1020C00004C0DF91CF911F910895D0E01C9FF001D3
:1020D0001D9FF00D1124E755FE4F40815181628113
:1020E0007381848195810E9447102196C770E5CF46
:1020F0004091D9015091DA016091DB017091DC01CE
:102100008091DD019091DE010C9447101F93CF93D5
:10211000DF938091DE01807FA9F48091DB01882329
:1021200089F08091A701C091A8016091D9017091B7
:10213000DA01A091DC01B091DD01D62FD72316E0A2
:10214000C81304C0DF91CF911F91089590E01097BC
:1021500011F0DF3F19F401968770F2CF189F9001BC
:10216000199F300D1124F901E755FE4F41814713A6
:10217000F2CF40814613EFCF42814111ECCF438132
:1021800054814A1B5B0B483C510528F78091DE01C6
:102190008F7080618093DE01F901E255FE4F8081EE
:1021A0008F708061808389ED91E00E94C90FDF917B
:1021B000CF911F910C945710AF92BF92CF92DF92A4
:1021C000EF92FF920F931F93CF93DF93CDB7DEB7BC
:1021D00061970FB6F894DEBF0FBECDBF8C0185E0CE
:1021E000F801DE011D9601900D928A95E1F7F80144
:1021F00040815181E28089EDC82E81E0D82E609126
:10220000DC017091DD016115710509F461C19091E6
:10221000D9012091DA01892F82238F3F09F458C117
:10222000A380B480F090DB01F501E61BF70BFF20E3
:1022300009F4FCC08091DE01382F307FE83CF105C5
:1022400008F0B2C0311179C0FE2C251323C09413BD
:1022500021C0E1101FC08F7080618093DE010E9459
:102260007810C6010E94C90F8091DE01F8018583B4
:102270008F2D61960FB6F894DEBF0FBECDBFDF91F4
:10228000CF911F910F91FF90EF90DF90CF90BF9073
:10229000AF900895AB2829F0842F85238F3F09F054
:1022A00033C180E0F82FF170DF2E80FF3CC08091B9
:1022B000A7012091A80136E0821315C04D875E87E3
:1022C0008D859E850E944015292F22952F702230E2
:1022D000F0F0243018F59F70F1F0F8019581907FAF
:1022E000D1F4D12C1EC090E0389FF001399FF00D41
:1022F0001124E755FE4F6181651306C060816413A8
:1023000003C062816E110FC001968770D5CF9F7098
:1023100011F0882331F3805E883018F3C8010E94E1
:10232000C90FFD2CA5CFEE2009F4A2CF8091DE01CC
:1023300081608093DE01F12C9BCF251306C094139E
:1023400004C0F801EE2009F48DC04D875E878D85AD
:102350009E850E943410882319F1EE2009F18091A6
:10236000DE01803270F02091D9013091DA01388796
:102370002F831986BB86AA868C87CE0107960E947A
:10238000C90F86E0F801A9EDB1E001900D928A95A0
:10239000E1F70E9486100E947810FF24F39468CF22
:1023A000C8010E94C90FF9CF311113C07A2DB98A23
:1023B000A88A6E2D89890E94381089ED91E00E94CB
:1023C000C90F86E0F60111928A95E9F70E9478100C
:1023D000B2CF25130FC094130DC0E1100BC0F8014C
:1023E0008583C8010E94C90F86E0F60111928A9583
:1023F000E9F73ECF4D875E878D859E850E9434101C
:10240000882371F2EE2061F28091DE01803208F4BF
:10241000B8CF2091D9013091DA013A8329831B8208
:10242000BD82AC828E83CE010196A9CFE83CF10536
:1024300008F041C0FE2CEE2009F4B2CF25132AC0CB
:10244000941328C08091DE0180FD1BC0982F907FDF
:10245000C1F0F8018583903F31F0982F907F905F15
:102460008F70892B8583C8010E94C90F86E0F8010F
:10247000A9EDB1E001900D928A95E1F70E947810E4
:10248000F7CE86E0F801A9EDB1E001900D928A95B2
:10249000E1F7EECE4D875E878D859E850E943410D4
:1024A00081116FCF8091DE0181608093DE01C801D0
:1024B0000E94C90FDDCE7A2DB98AA88A6E2D89892E
:1024C0000E94381086E0F60111928A95E9F7D6CF7E
:1024D000EE2009F465CF4D875E878D859E850E942D
:1024E0003410F82E882309F45BCF86E0F801A9EDBB
:1024F000B1E001900D928A95E1F789ED91E00E949B
:10250000A50C0E948610BACF81E08E25CBCE88EC38
:1025100090E008951F93CF93DF93CDB7DEB72C974C
:102520000FB6F894DEBF0FBECDBF4F8358876987C3
:102530007A878B879C87CE0107960E94DC108823C0
:1025400069F08A859B85892B39F04F815885842FC6
:1025500085238F3F09F071C016E05FC086E0FE0161
:102560003796DE01119601900D928A95E1F78A85E2
:102570009B85892B89F38F81988589238F3F61F310
:102580002091A80130E0C9010196877099274091F8
:10259000A7014817190671F40E9411101092A801A2
:1025A0001092A70186E0E9EDF1E0DF011D928A9526
:1025B000E9F7D2CF96E0929FD001939FB00D1124FE
:1025C000A755BE4FFE01319601900D929A95E1F705
:1025D0008093A8010E945710BFCF819FC001112492
:1025E00087559E4F0E94DC108823E9F0E091A701F7
:1025F0001E9FF0011124E755FE4F408151816281F9
:102600007381848195810E9447108091A70190E099
:102610000196877099278093A7018091A7019091D7
:10262000A8018913DACF2C960FB6F894DEBF0FBE3F
:10263000CDBFDF91CF911F91089569857A858B85F4
:102640009C850E94471088CFEF92FF920F931F93B3
:10265000CF93DF938C01892B81F0F12CEE24E3944E
:10266000E8012196F8018491843770F4843008F0F1
:102670005FC08130B1F08230A1F1DF91CF911F9125
:102680000F91FF90EF900895853709F44CC008F43E
:102690003DC09CE7980F903780F78F770E94340DEC
:1026A00049C00E5F1F4FFE01849190E2980F983051
:1026B00060F48770FE2D01C0FF0F8A95EAF78F2F17
:1026C0000E94B9150E94E21502C00E94AA0C8F2D2B
:1026D000815030F2EFE9FFE03197F1F700C00000E0
:1026E000F7CF0E5F1F4FFE01849190E2980F983054
:1026F00050F48770FE2D01C0FF0F8A95EAF78F2FE7
:102700000E94BF15DFCF0E94340DE1CF0E5F1F4F37
:10271000FE01C491C150D8F28FE99FE00197F1F713
:1027200000C00000F7CF0E5F1F4FFE01F490CFCF27
:102730000E94AA0C8E01CBCF08950C949C130E948A
:102740009D136093010270930202809303029093A1
:1027500004020C94FF0F08950C949F130F931F9382
:1027600000910102109102022091030230910402B3
:10277000602B712B822B932B1F910F910C949F1325
:102780000F931F9300910102109102022091030206
:102790003091040260237123822393231F910F91B0
:1027A0000C949F130F931F9300910102109102024A
:1027B000209103023091040260277127822793271A
:1027C0001F910F910C949F130C949C130C94E41381
:1027D0000E94E6136093FD017093FE018093FF0158
:1027E000909300020C94FF0F60E070E0CB010C941A
:1027F000E8130F931F9341E050E060E070E08A011E
:102800009B0104C0000F111F221F331F8A95D2F7AE
:10281000C901B8011F910F910C94E8130F931F93F6
:1028200041E050E060E070E004C0440F551F661FB7
:10283000771F8A95D2F78091FD019091FE01A091BA
:10284000FF01B09100028A019B01082B192B2A2B52
:102850003B2BC901B8011F910F910C94E8130F9302
:102860001F9341E050E060E070E004C0440F551F4A
:10287000661F771F8A95D2F7CB01BA0160957095D4
:10288000809590950091FD011091FE012091FF012E
:102890003091000260237123822393231F910F91B3
:1028A0000C94E8130F931F9341E050E060E070E058
:1028B00004C0440F551F661F771F8A95D2F7809179
:1028C000FD019091FE01A091FF01B09100028A01EB
:1028D0009B01082719272A273B27C901B8011F9107
:1028E0000F910C94E8130F931F930091FD01109129
:1028F000FE012091FF0130910002602B712B822B91
:10290000932B1F910F910C94E8130F931F93009139
:10291000FD011091FE012091FF0130910002602322
:102920007123822393231F910F910C94E8130F932B
:102930001F930091FD011091FE012091FF01309144
:10294000000260277127822793271F910F910C9413
:10295000E81308952CE0929F800D1124982F977012
:1029600041E001C0440F9A95EAF7869586958695D1
:1029700095E0899FF0011124E152FE4F90E080E044
:1029800070E05191DF0111979B01082E02C036952E
:1029900027950A94E2F721702195252724232527DE
:1029A0002C9301968530910561F708952CE0929F54
:1029B000800D1124982F977086958695869525E031
:1029C000829FF0011124E152FE4F50E040E080E090
:1029D000219130E0092E02C0369527950A94E2F73E
:1029E00021703327042E01C0220F0A94EAF7822BAC
:1029F0004F5F5F4F4530510559F70895BF92CF9211
:102A0000DF92EF92FF920F931F93CF93DF938C018E
:102A1000C090FD01D090FE01E090FF01F090000217
:102A20008091010290910202A0910302B0910402F0
:102A3000C82AD92AEA2AFB2ACFE1D0E0BC2ED70146
:102A4000C6010C2E04C0B695A795979587950A9454
:102A5000D2F780FD0EC0219788F7B12C8B2DDF9126
:102A6000CF911F910F91FF90EF90DF90CF90BF908B
:102A70000895B8018C2F0E949704019761F3EECF5F
:102A8000CF93DF93EC010E94FE14BE01DF91CF9142
:102A90000C9497041F93CF93DF93EB019091A601C1
:102AA000992331F0CB01DF91CF911F910C94401508
:102AB000882379F0CB010E94FE14182F682FCE01D5
:102AC0000E94AA14BE01812FDF91CF911F910C9417
:102AD0009704CB010E94D614182FF4CF682F809151
:102AE0000001909101010C94CF17682F8091000193
:102AF000909101010C94DA178091000190910101ED
:102B00000C94E51780910502859585958595089526
:102B1000809105028770089590910502977081E079
:102B200009F480E008958091290208959091290286
:102B3000892B8093290208958095909129029823EA
:102B400090932902089580932902089510922902F2
:102B5000089590912802892B8093280208958095EA
:102B600090912802982390932802089510922802A9
:102B7000089590912702892B8093270208958095CC
:102B8000909127029823909327020895109227028C
:102B9000089580910602089508950C94CC159091A3
:102BA0000602981721F0809306020C94CD15089523
:102BB00080910602882329F01092060280E00C948E
:102BC000CD150895E0910001F09101018091290255
:102BD0008083E0910001F0910101808190912802B1
:102BE000892B8083E0910001F09101018081909117
:102BF0002702892B808390910602992381F0E0912E
:102C00000001F09101018081892B80838091000176
:102C1000909101010E94191781110E94D81580918D
:102C20000001909101010C94020B08950C9415166B
:102C300098E0899F90011124622B609305020E9405
:102C40000E14809105028595859585950C94161630
:102C50001092050280E00C94161690910502809562
:102C6000892380930502282F277071F4282F082EBE
:102C7000000C330B9217130639F0859585958595D1
:102C80000E942F140C942816089590938F0180931E
:102C90008E010895829590E09C01220F331F220F30
:102CA000331F2C7C95958795959587958373282B55
:102CB00030E0C901880F991F8A7A359527952575C7
:102CC000822B0895CF93DF93D92F0E944A16C82FE5
:102CD0008D2F0E944A169C2FDF91CF9108956FEFA0
:102CE0007FEF90E080E00C94B42090E080E00E94C0
:102CF000902021E08C3E9E4F09F020E0822F089525
:102D000082E090E00C94882083E090E00C9488208E
:102D1000CF9384E090E00E948820C82F81E290E069
:102D20000E948820982F8C2FCF910895CF93C92F80
:102D3000682F84E090E00E9496206C2F81E290E062
:102D4000CF910C949620AB01BC018FE090E00C94E5
:102D5000A820AB01BC0183E190E00C94A82060E0C6
:102D600070E0CB010C94A91660E070E0CB010E94EA
:102D7000A3160C94AF166CEE7EEF90E080E00E94FC
:102D8000B42060E082E090E00E94962060E083E062
:102D900090E00E949620109201021092020210927E
:102DA00003021092040260E084E090E00E9496200A
:102DB00060E081E290E00E94962060E085E090E093
:102DC0000E94962060E086E090E00E9496206FEFDF
:102DD00087E090E00E94962040E050E0BA0188E051
:102DE00090E00E94A82060E08DE090E00E94962094
:102DF00040E050E0BA0188E190E00E94A82060E045
:102E000087E190E00E94962040E050E0BA018CE11A
:102E100090E00E94A82060E080E290E00E9496206E
:102E20000C94B4160C94BB16682F8EE090E00C94B2
:102E30009620FC01329680910C01882321F080912C
:102E40006A029EE187FF96E080E0915008F40895C1
:102E500021912223D1F38F5FF8CF662301F12091D6
:102E60000C012223F1F020916A0227FF1AC0462F9D
:102E70004695469546954E3190F4677021E030E0D6
:102E800002C0220F331F6A95E2F7840F911DFC01E7
:102E9000828190E02823392381E0232B69F480E0AC
:102EA0000895FC01329608962191261721F0E81723
:102EB000F907D1F7F4CF81E008959C01FC01329627
:102EC0009FEF80E04191461751F09F3F19F4411167
:102ED00001C0982F8F5F8630A9F79F3F09F40895AE
:102EE000290F311D97FD3A95F90162830895FC0180
:102EF000329608962191261303C0DF0111971C9288
:102F0000E817F907B9F70895E62FE695E695E695EF
:102F1000EE3170F4E80FF92FF11D677021E030E019
:102F200001C0220F6A95EAF78281822B828308957D
:102F300080912A0280FF0CC01F926F9387EA92E073
:102F40009F938F930E941E030F900F900F900F90EE
:102F50000895E62FE695E695E695EE3178F4E80FCC
:102F6000F92FF11D677021E030E001C0220F6A9552
:102F7000EAF72095828128232283089580912A02EE
:102F800080FF0CC01F926F9389E892E09F938F930C
:102F90000E941E030F900F900F900F9008952091A4
:102FA0000C01222329F020916A0227FD0C9484173A
:102FB0000C945D1720910C01222329F020916A02C4
:102FC00027FD0C94A9170C947717FC013296809179
:102FD0000C01882351F080916A0287FF06C08EE1C0
:102FE000DF011D928A95E9F7089586E0F9CF0895EB
:102FF00008950C94F8170E94F9178091700284309C
:1030000049F110922B0288E190E020E40FB6F89489
:10301000A895809360000FBE2093600080E00E941E
:1030200007040E94F91783B7817F846083BF83B749
:10303000816083BF7894889583B78E7F83BF0FB6F6
:10304000F894A89580916000886180936000109248
:1030500060000FBE08950895CF930E94F7170E9455
:1030600036070E942B18C0E08C2F0E948106892B06
:1030700031F4CF5FC430C1F780E0CF91089581E093
:10308000FCCF08950C9441180E9411100E94F60A7A
:103090000E9407040C9442181F921FB61F9211241D
:1030A0008F939F93AF93BF9380912B02811113C095
:1030B0008091660290916702A0916802B0916902C6
:1030C0004196A11DB11D8093660290936702A09363
:1030D0006802B0936902BF91AF919F918F911F9049
:1030E0001FBE1F90189582E084BD93E095BD9AEFB6
:1030F00097BD80936E0008952FB7F8948091660273
:1031000090916702A0916802B09169022FBF089563
:103110009C014FB7F8948091660290916702A0914C
:103120006802B09169024FBF821B930B0895789497
:103130001F921FB61F9211248F939F93AF93BF933B
:103140008091660290916702A0916802B091690235
:103150000196A11DB11D8093660290936702A09312
:103160006802B0936902BF91AF919F918F911F90B8
:103170001FBE1F90189581E08093E00080E280934D
:10318000D8001092C9008FE19EE40197F1F700C0CA
:10319000000087E090EBDC018093790290937A0243
:1031A000A0937B02B0937C0288E19CE00FB6F89478
:1031B000A895809360000FBE90936000FFCF0C94A1
:1031C0006F160E9436078FE39CE90197F1F700C064
:1031D00000000E94360780E00E94810680FF04C044
:1031E0000E94DF180C94BB1808950E947516811177
:1031F00002C00E9412170E94801680932A020E9429
:10320000881690936B0280936A020E948416682F3E
:1032100070E090E080E00E94AC136091FD0170913D
:10322000FE018091FF01909100020C94E6138091C1
:103230004F02089508959FB7F89410922E029FBFF1
:1032400090917002943009F048C02091E9002F70ED
:103250003091EC00932F917030FD90E8922B23E099
:103260002093E9002091EB0020FF34C02091EE0074
:1032700027FF30C020912C02222321F02091E8006A
:1032800025FF28C010922C0226E03091E80035FF7F
:1032900014C08093F1008091E80085FD27C08091E3
:1032A000E80080FFFCCF8091E8008E778093E800F3
:1032B0009F709093E90080E008953091700234305F
:1032C00049F43091EB0035FD05C0215041F481E017
:1032D00080932C029F709093E9008FEF0895EFE99F
:1032E000FFE03197F1F700C00000CFCF8FB7F8941F
:1032F00021E020932E028FBFDBCFCF93DF9300D04E
:103300000F92CDB7DEB790917002943019F5898392
:103310007B836A8382E08093E9008FEF9091E800DD
:10332000815095FD06C095ED9A95F1F70000811149
:10333000F5CF8091E80085FF0DC050E040E063E0EC
:1033400070E0CE0101960E94E61B8091E8008E7726
:103350008093E8000F900F900F90DF91CF91089528
:10336000BC0184E00C947D19BC0183E00C947D19B0
:10337000CF93DF93EC0180910C018823B1F1809110
:103380006A0287FF32C060E282E08093E9008FEF3B
:103390009091E800815095FD06C095ED9A95F1F762
:1033A00000008111F5CF8091E80085FF1BC080915E
:1033B0000C0170E050E040E0811104C050E040E0BA
:1033C00068E070E0CE010E94E61B8091E8008E77F5
:1033D0008093E80080E2FE01AFE2B2E001900D923E
:1033E0008A95E1F7DF91CF91089568E081E0CDCF34
:1033F0008AEE92E00E94850280916F02811109C0DD
:103400000E94761D0E94D31D8091E200846080930B
:10341000E200089586EE92E00E94850210926F020B
:10342000089582EE92E00C9485028EED92E00C9469
:1034300085028AED92E00E9485020C944418209146
:103440002D022F5F822F62E30E947620992319F0CC
:1034500020932D02089510922D0280912E02882330
:10346000F1F0809170028430C1F49091E9009F7076
:103470002091EC00822F817020FD80E8892B93E061
:103480009093E9009091EB0090FF04C09091EE00C2
:1034900097FD08C08F708093E90010922E02089566
:1034A0001092F1009091E80095FDFACF9091E8001C
:1034B00090FFF0CF9091E8009E779093E800EACFDC
:1034C00042E061EC81E00E94F21C42E261EC82E0A9
:1034D0000E94F21C42E261EC83E00C94F21C8091A9
:1034E0007202833009F45FC030F48130C1F1823060
:1034F00009F49BC008958A3009F487C08B3009F421
:103500006DC0893009F04EC080917102813209F09E
:1035100049C08091750290917602029708F042C0EE
:103520008091E800877F8093E8008091E80082FF27
:1035300035C09091F3008091F200029729F48091B8
:10354000F1008B7F813021F48091F10080934F0254
:103550008091E8008B778093E8000C94261D809181
:103560007102813AF9F48091E800877F8093E80046
:103570008091750290917602892B61F460E28FE26E
:1035800092E070E00E94351C8091E8008B77809378
:10359000E800089560E090E080E0F3CF8091700251
:1035A0008111C3CF089580917102813AD9F780913A
:1035B000750290917602892BA9F78091E800877FA8
:1035C0008093E8008091E80080FFFCCF80910C019F
:1035D0008093F1008091E8008E77BDCF80917102D9
:1035E000813201F78091750290917602892BD1F694
:1035F0008091E800877F8093E8000E94261D8091DB
:10360000730280930C010C9411108091710281322D
:1036100049F68091E800877F8093E8000E94261D8C
:103620008091740280935002089580917102813AD2
:1036300009F0B8CF8091E800877F8093E8008091FF
:10364000E80080FFFCCF80915002C2CF84B7877F13
:1036500084BF0FB6F894A89580916000886180932C
:103660006000109260000FBE80E890E00FB6F89402
:1036700080936100909361000FBE0E94970B0E949F
:10368000761D0E94D31D8091E20084608093E20049
:103690008BE199E10E94451678940E945B200E947C
:1036A000A10B82E091E00E94F10A89EC92E00E9475
:1036B000850280917002853019F00E94D10BF9CFFC
:1036C00085EC92E00E9485020E94FB1780916E02B9
:1036D000882379F30E942C18882359F30E94D01B69
:1036E000E8CF0C94731B292F33272330310521F1A8
:1036F00068F42130310509F449C02230310509F45C
:103700004AC090E080E030E020E029C0213231055D
:1037100081F122323105A9F76330710590F7FB0181
:10372000EE0FFF1FEE57FE4F2081318161587E4F13
:10373000FB01808190E013C099278130910599F0B9
:10374000009741F08230910589F00397D1F6EEEEB3
:10375000F2E002C0E0E2F3E0849190E09F01FA0120
:10376000318320830895E0E1F3E0F6CFE4EFF2E067
:10377000F3CF6330710528F6660F771FFB01E8571A
:10378000FE4F2081318189E090E0E9CF82E190E035
:103790002FE733E0E4CF8BE590E024E233E0DFCFA6
:1037A00080E189BD82E189BD09B400FEFDCF809131
:1037B000D8008F7D8093D8008091E0008260809354
:1037C000E0008091E00081FDFCCF0895AF92BF92B0
:1037D000CF92DF92FF920F931F93CF93DF936C01F1
:1037E000EB018A010E94451DF82E811123C00115AD
:1037F000110539F0F80180819181C81BD90BC80EE1
:10380000D91EB12CA12C2097A9F08091E80085FD4C
:1038100022C08091E8008E778093E80001151105A1
:10382000A1F0F80180819181A80EB91EB182A08219
:1038300085E0F82E8F2DDF91CF911F910F91FF9092
:10384000DF90CF90BF90AF9008950E94451D8823D0
:10385000D1F2F82EEFCFF60181916F018093F10044
:103860002197FFEFAF1ABF0ACECFFC0180917702FC
:103870009091780286179707A0F06115710529F4D9
:103880009091E8009E779093E80090E061157105B3
:1038900051F4911108C08091E80082FF34C080E0AB
:1038A0000895BC01F2CF809170028823C1F1853068
:1038B000C1F18091E80083FD30C08091E80082FD75
:1038C000EACF8091E80080FFE1CF8091F300209162
:1038D000F200382F6115710519F02830310558F0C4
:1038E00091E02830310509F090E02091E8002E7732
:1038F0002093E800CBCF81918093F1006150710952
:103900002F5F3F4FE7CF80917002882341F08530D1
:1039100041F08091E80083FFBECF81E0089582E00E
:10392000089583E00895FC018091770290917802D8
:1039300086179707A0F06115710529F48091E800BA
:103940008E778093E80090E06115710551F4911134
:1039500008C08091E80082FF35C080E00895BC0176
:10396000F2CF809170028823C9F18530C9F180912E
:10397000E80083FD31C08091E80082FDEACF8091AC
:10398000E80080FFE1CF8091F3002091F200382F12
:103990006115710519F02830310558F091E0283093
:1039A000310509F090E08091E8008E778093E8007F
:1039B000CBCF84918093F1003196615071092F5FD4
:1039C0003F4FE6CF80917002882341F0853041F06F
:1039D0008091E80083FFBDCF81E0089582E00895E3
:1039E00083E00895982F973028F08F708093E90036
:1039F00081E008959093E900242F762F50E09817E6
:103A000031F07091EC002091ED005091F00021FD1B
:103A100002C09F5FE8CF3091EB003E7F3093EB0018
:103A20003091ED003D7F3093ED003091EB0031603F
:103A30003093EB007093EC002093ED005093F00076
:103A40002091EE0027FDE5CF80E00895809171027E
:103A500087FF13C08091E80082FF06C08091E800D4
:103A60008B778093E80004C0809170028111F2CFBF
:103A70000895809170028823D9F38091E80080FF37
:103A8000F8CF8091E8008E77ECCF2091E400309160
:103A9000E50095E6A9012091EC00822F817020FFBE
:103AA00006C08091E80080FF06C080E00895209164
:103AB000E80022FD1AC080917002882389F08530C9
:103AC00089F08091EB0085FD0FC02091E4003091DA
:103AD000E50042175307F9F29150E1F684E00895AA
:103AE00082E0089583E0089581E008950E94E41D36
:103AF0000E94EC1DE0EEF0E0808181608083E8EDC3
:103B0000F0E080818F77808319BCA7EDB0E08C91C5
:103B10008E7F8C9380818F7E808310926F020895B8
:103B20000F931F93CF93DF930E94E41D0E94EC1D1F
:103B3000C8EDD0E088818F7788838881806888830A
:103B400088818F7D888319BC1092700210926C025C
:103B500010926E0210926D0200EE10E0F80180816A
:103B60008B7F808388818160888342E060E080E091
:103B70000E94F21CE1EEF0E080818E7F8083E2EE15
:103B8000F0E0808181608083808188608083F8019B
:103B900080818E7F8083888180618883DF91CF914F
:103BA0001F910F910895E8EDF0E080818F7E808372
:103BB000E7EDF0E080818160808384E082BF81E076
:103BC00080936F020C94901DE8EDF0E080818E7F71
:103BD00080831092E20008951092DA001092E100C2
:103BE00008951F920F920FB60F9211242F933F93B7
:103BF0004F935F936F937F938F939F93AF93BF93F5
:103C0000EF93FF938091E10082FF0BC08091E2006F
:103C100082FF07C08091E1008B7F8093E1000E94CA
:103C20001F1A8091DA0080FF19C08091D80080FFB0
:103C300015C08091DA008E7F8093DA008091D900E0
:103C400080FF96C080E189BD82E189BD09B400FE94
:103C5000FDCF81E0809370020E94F8198091E1000D
:103C600080FF19C08091E20080FF15C08091E200C2
:103C70008E7F8093E2008091E20080618093E20079
:103C80008091D80080628093D80019BC85E0809331
:103C900070020E94151A8091E10084FF2BC0809170
:103CA000E20084FF27C080E189BD82E189BD89B53A
:103CB000982F917080FFFBCF8091D8008F7D8093EB
:103CC000D8008091E1008F7E8093E1008091E20036
:103CD0008F7E8093E2008091E20081608093E20019
:103CE00080916C02882309F449C084E080937002BB
:103CF0000E94191A8091E10083FF29C08091E2009F
:103D000083FF25C08091E100877F8093E10082E0FE
:103D10008093700210926C028091E1008E7F8093FC
:103D2000E1008091E2008E7F8093E2008091E200CA
:103D300080618093E20042E060E080E00E94F21C3B
:103D40008091F00088608093F0000E94111AFF912A
:103D5000EF91BF91AF919F918F917F916F915F9103
:103D60004F913F912F910F900FBE0F901F9018957C
:103D700019BC109270020E940A1A70CF8091E30061
:103D800087FD93E090937002B3CF1F920F920FB60E
:103D90000F9211242F933F934F935F936F937F93D1
:103DA0008F939F93AF93BF93CF93DF93EF93FF9343
:103DB000D091E900DF708091EC00C82FC17080FDC8
:103DC000C0E81092E9008091F000877F8093F000B6
:103DD00078940E94091F1092E9008091F000886099
:103DE0008093F000CD2BCF70C093E900FF91EF914D
:103DF000DF91CF91BF91AF919F918F917F916F9103
:103E00005F914F913F912F910F900FBE0F901F9098
:103E100018951F93CF93DF93CDB7DEB7AA970FB650
:103E2000F894DEBF0FBECDBF81E792E02091F10094
:103E3000FC012193CF01F2E089379F07B9F70E9477
:103E40006F1A8091E80083FF1EC1809171029091EA
:103E500072029A3008F017C1E92FF0E0E651FF4DE9
:103E60000C948220803899F0823809F00CC180913E
:103E700075028F70873008F006C18093E900809149
:103E8000EB0085FB882780F91092E90006C080913D
:103E90006D0290916E02911182609091E800977F7F
:103EA0009093E8008093F1001092F1008091E80077
:103EB0008E77E5C0882309F4D3C0823009F0E3C0CF
:103EC000809173028111D6C0809175028F702FEF9F
:103ED000280F263008F0D7C08093E9002091EB002E
:103EE00020FFC8C0933031F48091EB008062809352
:103EF000EB00C0C09091EB0090619093EB0021E04B
:103F000030E001C0220F8A95EAF72093EA00109270
:103F1000EA008091EB008860EACF8111B4C0109173
:103F200073021F778091E3008078812B8093E300F8
:103F30008091E800877F8093E8000E94261D809191
:103F4000E80080FFFCCF8091E30080688093E3006D
:103F500082E0111183E08093700295C08058823016
:103F600008F091C080917302909174028C3D23E01F
:103F70009207A1F583E08A838AE289834FB7F89498
:103F8000DE01139620E03EE051E2E32FF0E0509393
:103F90005700E49120FF03C0E295EF703F5FEF70A0
:103FA0008E2F90E0EA30C0F0C7968D939D932F5FDF
:103FB000243159F74FBF8091E800877F8093E80054
:103FC0006AE270E0CE0101960E94351C8091E80003
:103FD0008B778093E80057C0C096E7CF6091750259
:103FE00070917602AE014F5F5F4F0E94711BBC0162
:103FF000892B09F448C09091E800977F9093E800DE
:1040000089819A810E94931CE1CF8038E1F58091EB
:10401000E800877F8093E80080916C028093F10034
:1040200045CF811130C090917302923060F580913C
:10403000E800877F8093E80090936C020E94261D21
:1040400080916C02882311F084E005C08091E30028
:1040500087FDFACF81E0809370020E94601A13C03E
:1040600080917302813079F481E0933009F080E02F
:1040700080936E021092E9008091E800877F809320
:10408000E8000E94261D8091E80083FF0AC080910D
:10409000E800877F8093E8008091EB008062809346
:1040A000EB00AA960FB6F894DEBF0FBECDBFDF912E
:1040B000CF911F910895CF93809170028823A1F032
:1040C000C091E900CF709091EC00892F817090FD34
:1040D00080E8C82B1092E9008091E80083FD0E94DF
:1040E000091FCF70C093E900CF910895991B79E023
:1040F00004C0991F961708F0961B881F7A95C9F778
:1041000080950895EE0FFF1F0590F491E02D09941E
:10411000F999FECF92BD81BDF89A992780B508958F
:10412000A8E1B0E042E050E00C94BC20262FF999C1
:10413000FECF92BD81BDF89A019700B4021639F006
:104140001FBA20BD0FB6F894FA9AF99A0FBE0895D7
:104150000396272F0E9497200E949620252F0E94C9
:104160009720242F0C9497200196272F0E949720A8
:104170000C949620DC01CB01FC01F999FECF06C01E
:10418000F2BDE1BDF89A319600B40D924150504015
:10419000B8F70895F894FFCFDB0DDB0D330E330E27
:1041A000850E080E080E080EA10E2D0F3C0F3C0FB9
:1041B000980F080E080EA10F2010201029102910AA
:1041C0002B10291029102910201020103010291030
:1041D00029103010321F5A1F43205A1F43208D1FB1
:0841E000AE1F43200520112051
:1041E80007021719B8191A19B419B01901E200E928
:1041F80000EA00B500B600B700CD008301CC008A04
:104208000192019401210223022402250226022799
:10421800022A02B300B4006F007000818283F5F6B1
:10422800F731333234C69766949091F43536E2000C
:10423800E900EA00B500B600B700CD008301CC0064
:104248008A019201940121022302240225022602F6
:1042580027022A02B300B4006F00700081828340F5
:0E4268006D222004B303910336034F03680355
:00000001FF
